:020000040800F2
:10000000088E0024650300086D03000865CC000815
:10001000D5030008D5030008D50300080000000040
:10002000000000000000000000000000790500084A
:100030007903000800000000A3040008470300083B
:100040007F0300087F0300087F0300087F03000888
:100050007F0300087F0300087F0300087F03000878
:100060007F0300087F0300087F0300087F03000868
:100070007F0300087F0300087F0300087F03000858
:100080007F0300087F0300087F0300087F03000848
:100090007F0300087F0300087F0300087F03000838
:1000A0007F0300087F0300087F0300087F03000828
:1000B000053400087F0300087F0300087F03000861
:1000C0007F0300087F0300087F0300087F03000808
:1000D0007F0300081D3A00087F030008253A000846
:1000E0007F0300087F030008000000007F03000872
:1000F0007F0300087F0300087F0300087F030008D8
:100100007F0300087F0300087F0300087F030008C7
:100110007F0300087F0300087F0300087F030008B7
:100120007F0300087F0300087F0300087F030008A7
:100130007F0300087F0300087F0300087F03000897
:1001400000000000000000000000000000000000AF
:100150007F0300087F0300087F0300087F03000877
:100160007F0300087F0300087F0300087F03000867
:100170007F0300087F0300087F03000800000000E1
:100180007F0300087F0300087F0300087F03000847
:100190007F0300087F0300087F0300087F03000837
:1001A0007F0300087F0300087F0300087F03000827
:1001B0007F0300087F0300087F0300087F03000817
:1001C0007F0300087F0300087F0300087F03000807
:1001D0007F0300087F0300087F0300087F030008F7
:1001E0007F0300087F0300087F0300087F030008E7
:1001F0007F0300087F0300087F0300087F030008D7
:100200007F0300087F0300087F0300087F030008C6
:100210007F0300087F0300087F0300087F030008B6
:100220007F0300087F0300087F0300080000000030
:100230007F0300087F030008000000007F03000820
:100240007F0300087F0300087F0300087F03000886
:100250007F0300087F0300087F0300087F03000876
:100260007F0300087F0300087F0300087F03000866
:100270007F0300087F0300087F03000800000000E0
:100280007F0300087F0300087F03000800000000D0
:10029000000000007F030008DFF80CD000F096FD9E
:1002A0000048004705CC0008088E0024000000002C
:1002B000AC660024088E002400000008306700248B
:1002C00000000008001000E07F1A06000000FF4058
:1002D00072B65FF824005FF8241001F10401016098
:1002E0004FF0E0205FF83010C0F8081D5FF83400D0
:1002F0005FF83410096801605FF83800016841F068
:10030000010101604FF0E0205FF8441041614FF0BF
:10031000070101614FF00001C0F8181D4FF07F4147
:10032000C0F81C1D5FF85C10C0F8201D7047FFF777
:10033000FEBFFFF7FEBF01B504F07CFA04F0CEFA71
:10034000BDE80140704701B504F074FA00F018FAF6
:1003500004F0C4FABDE801407047FFF7FEBFFFF7A5
:10036000FEBF00000648804706480047FEE7FEE75C
:10037000FEE7FEE7FEE7FEE7FEE7FEE7FEE7FEE755
:10038000353100089902000800000000000000005C
:10039000EFF3108180F310880846704700000000DA
:1003A0004FF00000CD4A1060EFF3148020F00400FD
:1003B00080F31488CA484FF4E021016062B64FF020
:1003C00080504FF0E021C1F8040DBFF34F8FBFF311
:1003D0006F8FFEE772B6DFF80CC3C3480168CCF834
:1003E0000010BF480168CCF80810C0480168CCF87C
:1003F0000C10BF480168CCF81010BE480168CCF85A
:100400001410EFF31480CCF81800EFF30981CCF846
:100410001C100868CCF820004868CCF82400CCF800
:100420002820CCF82C30CCF83040CCF83450CCF824
:100430003860CCF83C70CCF84080CCF84490CCF8D4
:1004400048A0CCF84CB00869CCF850004869CCF80A
:1004500054008869CCF80400C869CCF85800EFF360
:10046000148020F0010080F31488A0480178017006
:10047000A148016821F0010101600BF065FC72B632
:1004800004F086FA62B64FF000019C4801609C4877
:100490004FF080510160BFF34F8F62B66FF0020ED4
:1004A000704772B601B504F073FABDE8014062B658
:1004B0009448954A4FF00003016891B10360EFF34F
:1004C000098C2CE9F00F1EF0100F01D12CED108AD1
:1004D0008E4C4CF804ED2568C1F808C00DB18D6153
:1004E000236072B6116851B972B6116809B962B663
:1004F000FAE74FF000674FF0E028C8F8047D01608C
:1005000062B64F68824C8D6907F101074F60256024
:1005100003B404F01BFA03BCD1F808C0EFF3148550
:10052000D1F8984025F0010544EA050484F31488C5
:1005300078484FF000030360D1F8900080B1416E1D
:1005400071B1754900F16400B0E8FC0381E8FC0377
:1005500090E8FC0381E8FC036E484FF00501016060
:100560005CF804EB1EF0100F01D1BCEC108ABCE863
:10057000F00F8CF309887047EFF30980816911F857
:10058000022C012A43D1654A914218BF7047436942
:1005900063490A684FF00001C2F89810C2F8A03011
:1005A000D2F89000C06810F0020F29D0D2F8A8004D
:1005B000D2F8A410D2F8AC30D16010615361EFF3DF
:1005C00009831EF0100F04BF43F001034EF0100E1C
:1005D000C2F8B03023F0010303F1200333E9060031
:1005E00020E9060033E9060020E9060033E90600A9
:1005F00020E9060033E9060020E9060080F30988B7
:10060000EFF3148020F0010080F314887047454A0E
:10061000914218BF704744490A68D2F89C10C2F84A
:100620009810D2F89000C06810F0020F38D0D2F8BD
:10063000B400D2F8B810D2F8BC30D0601161536168
:100640002D4B1B6813F0010F0DD038490968D2F803
:10065000A400814207D3D2F8A800884203D323F034
:10066000010325490B60D2F8B000EFF3098310F0C5
:10067000010F1ABF2EF0100E20F001004EF0100EE8
:1006800006CB06C006CB06C006CB06C006CB06C00E
:10069000A0F1200080F3098825490A68D2F89C104F
:1006A000EFF3148040EA010080F31488704700BF24
:1006B00000BF00BF00BF00BF00BF00BF00BF00BF42
:1006C00001DF07F0A7FC1B4A1368D3F8A0E002DFA4
:1006D000704700BF00BF00BF00BF7047B8010024D3
:1006E00024ED00E0C46C00249C01002428ED00E00F
:1006F00034ED00E038ED00E034EF00E09C01002430
:1007000004ED00E09C010024A0010024CC010024A1
:10071000CC01002494ED00E09CED00E0C20600084E
:100720009C010024D00600089C01002438EF00E062
:100730009C0100249C010024000000000000000037
:10074000026922F00702A2F144026FF00203136073
:100750004FF0000353609360D36013615361936162
:10076000D361136253629362D362136353634FF096
:10077000FF339363D1634FF08073136482607047DB
:100780002249086800F101000860214B1A683AB15B
:10079000A2F101021A601AB91E4B4FF00100186055
:1007A0001D490868026822B11C4B4FF001021A6013
:1007B00008E000F104001A4B1A68904201D1194B6D
:1007C00018680860184B1A6812B918490868D0B13F
:1007D0002DE901401649086808B106F07BFA154B6F
:1007E0001A6872B106F0A2F81348016849B91348B3
:1007F0000168134A136813484FF08052994200D0A1
:100800000260BDE80140BFF34F8F7047C80100246C
:10081000CC010024D0010024E0010024D4010024F4
:10082000E4010024DC010024D0010024D4010024D0
:10083000D4010024D0010024B80100249C0100242C
:10084000A001002404ED00E0000000000000000012
:10085000026922F00702A2F144026FF00203136062
:100860004FF0000353609360D36013615361D36111
:1008700013625062836893629B6893614FF0000338
:10088000D362136353634FF0FF339363D1634FF02D
:1008900080731364826070472DE9F05F0546002085
:1008A00092469B4688460646814640241BE02846E1
:1008B00041464746224600F063F853465A46C01A5E
:1008C000914110D311461846224600F04AF82D1ADD
:1008D00067EB01084F4622460120002100F041F855
:1008E00017EB00094E41201EA4F10104DFDC48464D
:1008F00031462A464346BDE8F09FD2B201E000F8F7
:10090000012B491EFBD270470022F6E710B51346B3
:100910000A4604461946FFF7F0FF204610BD0EB503
:1009200040F2334202920022CDE90022134600F049
:1009300046F803B000BD30B50B460146002020222A
:10094000012409E021FA02F59D4205D303FA02F5DC
:10095000491B04FA02F52844151EA2F10102F1DC3C
:1009600030BD202A04DB203A00FA02F10020704753
:100970009140C2F1200320FA03F3194390407047DD
:10098000202A04DB203A21FA02F00021704721FAE4
:1009900002F3D040C2F1200291400843194670474B
:1009A00010B5141E73F1000408DA401C41F1000177
:1009B00092185B411A4301D120F0010010BD2DE9CE
:1009C000F04D92469B4611B1B1FA81F202E0B0FAC5
:1009D00080F220329046FFF7C4FF04460F4640EAFB
:1009E0000A0041EA0B0153465A46084313D0114608
:1009F00053EA010019D0C8F140025046FFF7C0FF8A
:100A000005460E46504659464246FFF7AAFF0843A0
:100A100005D0012004E020463946BDE8F08D0020D5
:100A2000054346EAE0762C4337430A986305E40A17
:100A3000A0EB08000022FD0A44EA47540A3002D520
:100A400000200146E9E7010510196941DDE9084583
:100A500000196941BDE8F04DA2E72DE9FE4F80463F
:100A600081EA0300C00F0C46009021F0004123F002
:100A70000045B8EB0200A94105D240462146904608
:100A80001C460B46024623F00040104347D0270D7A
:100A9000C7F30A00C3F30A510290401A019040289C
:100AA0006BDAC3F3130040F4801B0098924620B128
:100AB0000023D2EB030A63EB0B0B01985946C0F1FC
:100AC00040025046FFF74DFF06460D465046594638
:100AD000019A00F08DF910EB08006141002487EACB
:100AE000115284EAE7731A4340D0009A62B3019A24
:100AF000012A4FEA075215DC001B61EB02014FF09F
:100B0000004202EA0752CDE90042001C41F5801183
:100B100032462B46FFF753FF03B0BDE8F08F404647
:100B20002146F9E7001B61EB0201001C41F580132F
:100B300000185B412018A2F5001747EB030140EABB
:100B4000D570B6196D4111E06D084FEA360645EAD9
:100B5000C0754FEA0752001B61EB0201001C41F512
:100B6000801149084FEA30000019514132462B46A6
:100B700003B0BDE8F04FFFF713BF0098012240001B
:100B80000023D0EB020263EBE073009821464FEAAA
:100B9000E074B8EB000061EB0401E9E783F0004387
:100BA0005BE781F0004158E72DE9FE4F81EA03043D
:100BB00004F0004421F0004100944FF0000B23F0BA
:100BC000004350EA01045ED052EA03045BD0C3F351
:100BD0000A54C1F30A552C44A4F2F3340194A0FB47
:100BE0000254C1F3130141F48011C3F3130343F41E
:100BF000801301FB024400FB034E840A970A44EA77
:100C0000815447EA8357A4FB076802958D0A05FBC8
:100C100007854FEA932C04FB0C542705029D4FEAED
:100C2000065847EA1637B5EB08056EEB070C870E3A
:100C3000920E47EA811742EA8312A7FB0201B6EB44
:100C40000B0164EB00042B0D43EA0C335E1844EBFC
:100C50001C50DA465146E7FB0201C5F313044FEA84
:100C60000B3343EA14534FEA0432019C43EA060370
:100C7000A4F10C040294009CCDE900B4FFF79FFEA0
:100C800003B0BDE8F08F00200146F9E72DE9F04DF3
:100C900081EA030404F0004B21F0004514464FF0B4
:100CA000000A23F0004150EA050220D054EA010274
:100CB0001DD0C5F30A570246C5F31303C1F3130051
:100CC000C1F30A5640F4801543F48013A7EB0608DD
:100CD000101BD64608F2FD3873EB050002D308F16D
:100CE000010801E092185B41B8F1000F03DA00201F
:100CF0000146BDE8F08D00204FF480110646844681
:100D00000EE0171B73EB050705D3121B63EB0503FE
:100D100006434CEA010C49084FEA300092185B4147
:100D200050EA0107EDD152EA030012D082EA040032
:100D300083EA0501084305D0101BAB4106D201220E
:100D4000002306E000224FF0004302E06FF00102B2
:100D500053101AEB06004CEB085110EB0A0041EB64
:100D60000B01BDE8F04DFFF71BBEC1F30A52C1F302
:100D7000130140F2FF3341F480119A4202DA00205D
:100D80000146704740F233439A42A2F2334202DCFA
:100D90005242FFF7F5BDFFF7E4BD000030B5041E79
:100DA00071F1000404DB4FF00044404264EB0101A8
:100DB000141E73F1000405DB1C464FF00043524241
:100DC00063EB0403994208BF904230BD064C074DC7
:100DD00006E0E06840F0010394E80700984710340B
:100DE000AC42F6D3FFF75CFAE0D7000800D8000861
:100DF000202A06DBCB17203A41FA02F043EAE073DF
:100E000006E041FA02F3D040C2F1200291400843CB
:100E10001946704702200BF09BFE4FF47A7005F0E4
:100E200073F9F7E74FF47A7005F06EF9FAE700000E
:100E300088B001F07DFC0BF093FB0320CDE90200AC
:100E40004FA1524A524D00234FF4807601274FF0B4
:100E500002094FF4805806960597CDF81090CDF80A
:100E600004800024444800904448A847042003908C
:100E7000CDE9018049A14D4A00230696CDE90447FA
:100E8000444800904448A84705200390CDE90180DC
:100E900049A14D4A00230696CDE9049744480090A5
:100EA0004448A84749484AA101223423342506F082
:100EB00033FB30204A4ECDE900804AA14C4B04223E
:100EC00006F1080006F0B0F806F1380049A14B4AD7
:100ED0004FF48053009506F083F9B448B54A9FED6E
:100EE000248BD0E900A9AE48D2E90023D0E9000163
:100EF00010EB0A0041EB0901871841EB030B02F0EC
:100F0000E3F80134C82C2FD1A848D0E90058B5EB3C
:100F10000A0068EB0901FFF702FD41EC190BA0483C
:100F2000A44A3C46D0E90001D2E90023401941EB34
:100F30000801871841EB0306381B66EB0B01FFF72E
:100F4000EEFC41EC100B2648B0EE481B0024AA46EC
:100F5000C146B34689EE000B80ED000B90ED000B0F
:100F600000EE481B80ED001B012005F0CDF8C6E720
:100F70000000000000005940A8330024A8430024CA
:100F8000417070204D73702050726F00250E000864
:100F9000897A0008A8550024A865002441707020B3
:100FA0005461736B20557365724946000110000847
:100FB000A8220024A8320024417070205461736B71
:100FC00020434F4D00000000150E0008742200243D
:100FD0004170705072696E746653656D70000000E8
:100FE00018000024417070426C6F636B00000000B9
:100FF00074020024417070506F6F6C0074120024F2
:1010000088B05748644EDFF89CA1834FDFF80CB2DC
:10101000DFF8A08100F138010830049103900BF053
:101020008FFA072863D0042800F08580012840F05B
:101030009280DFF860914846B047494890ED000B38
:10104000564853EC102BB047554DD5E90001FFF73A
:1010500066FC01F0D0FD544801F0B8FC534CD4E9D3
:101060000001FFF75CFC01F0C6FD514801F0AEFC49
:10107000D8E90001FFF753FC01F0BDFD4E4801F037
:10108000A5FCD5E90001D4E9002380185941D8E92D
:10109000002380185941FFF742FC9AED001A41ECF9
:1010A000100B46A0B8EE411B80EE010B53EC102B49
:1010B000B0474846B0474848B04748A0B047B9464F
:1010C000B9F1000F47D0D9F8DC30D9E90442D9E9A9
:1010D0000A01D9F80850E31ACDE900305846631BDD
:1010E00000F0A4F8D9F88890B945E9D133E0049824
:1010F00006A94D22002306F041F858B948480CF0E3
:1011000059FA01F0BEFC05AA06F0ECF8059945482D
:101110000BF0B2FD069806F0FDF8E0B942480CF07D
:1011200049FA01F0AEFC05AA06F0DCF805993D4845
:101130000BF0A2FD0FE0039807A9002205F054FF71
:1011400010B908A00CF036FA079806F009F810B9A3
:101150000AA00CF02FFA142004F0D6FF5FE700BFBE
:1011600018000024417070426C6F636BC4DAB4E6FF
:10117000BFE9C9EAC7EBB3C9B9A60D004170704217
:101180006C6F636BC4DAB4E6BFE9CACDB7C5B3C947
:10119000B9A60D0066D600082D12000850D600082A
:1011A000180200240C00002405D7000810020024B7
:1011B000EED6000820020024D7D60008CFB5CDB364
:1011C000D7DCD6B4D0D0CAB1BCE4203D20252E391E
:1011D00066730D0A0000000036D70008202020505A
:1011E00072696F2020202020537461636B53697AE9
:1011F00065202020437572537461636B202020208A
:101200004D6178537461636B2020205461736B6E61
:10121000616D650D0A000000A8540024A8D60008DE
:1012200086D700081CD700086FD7000883B0B0B578
:10123000B5B0044639A80DF10B050EC039ABC92174
:101240002246019328460BF027FD094C4FF0FF3151
:10125000204606F0DBF907A029460BF00DFD2046DD
:1012600006F01AFA35B0BDE8B04003B0704700BFD1
:10127000742200242573000001B1FEE770470000CE
:10128000F0B5B3F5804F0FD150F82230094C234010
:1012900091E8F0008969234343EA051343EA0623F2
:1012A000194341EA074101E06FF0704140F8221014
:1012B0000020F0BD0000F0CF2DE9F0410A6801F1F7
:1012C000080750F8223023F0010340F82230D1E91A
:1012D00000C3F0CFD1E9062E2343082C08BF43F00A
:1012E00040032B4333433B4301F120071A434EEAAB
:1012F000020EF8CFD1E90D2843EA0E032343104C28
:101300002B4333433B431A4350F82C3042EA080244
:1013100023401A4340F82C200A6BB2F5801F05D1F8
:101320000A684AB1026842F4801202600A681AB17F
:10133000496B0268114301600020BDE8F08100BFE5
:101340008004C0FF2DE9F04700EB8203174DAA4649
:10135000D3F80480D1E9042ED1E90096D1E9027CCA
:101360008C6905EB025208F0404545EA090545EA5B
:10137000061545EA072545EA0C452A4322430EF1A6
:10138000FE0442EA04625A600268D2020BD5426847
:10139000096922F470020AEB01511143426822F4F8
:1013A0007002114341600020BDE8F0870000F0FFAB
:1013B000014801F0E1BC00BF200400582DE9F84FBE
:1013C000594A4FF00A0A4FF000084FF0010B4FF056
:1013D000000C9042554A08BF4FF0090A02444FEAF8
:1013E000B223092B38BF4FEAB22A00220D6835FA22
:1013F00002F600F097800BFA02F715EA070900F0F1
:1014000084804E68122E00F286800BFA06F414F0E7
:10141000061F00F08080032303FA0CF48368CD6874
:10142000A34305FA0CF56FEA040E2B4383603309DE
:101430004568BD43934057002B434360C3688C68A5
:1014400003EA0E03BC402343C36046F01003122B93
:1014500011D16FF0030508F01C030F2405EA5205B3
:101460009C4005442E6A26EA04040E6906FA03F33A
:1014700023432B624E68036806F0030403EA0E035D
:10148000BC4023430360F3003FD52A4C2A4F4FF062
:10149000B04E236843F00203236023680F2403F057
:1014A00002030093009D08F00C0322F003059C400A
:1014B0000AFA03F3EE5926EA04042343EB511C4FC6
:1014C000FB6F4D6843EA0904EE0358BF23EA0904A1
:1014D000FC67AE03D7F8803043EA090458BF23EA1B
:1014E0000904C7F88040EE02DEF8003043EA090440
:1014F00058BF23EA0904CEF80040AD023B6843EA36
:10150000090458BF23EA09043C6008F104080CF1FF
:10151000020C01326AE70323674603FA0CF46FEA10
:10152000040E8BE7BDE8F88F002402580000FEA7E8
:1015300004000058F44402580804005801480068A8
:10154000000C70470010005C0D480068B0B12148E5
:101550000068800B68B100BF013800BF00BF00BF4A
:1015600000BF00BF00BF00BF00BF00BF00BF00BF83
:10157000F0E70449086801300860704705F0DEBAFA
:1015800014000024A866002480B5032000F094F81D
:1015900000F01EFE0E49554B0A68096801F00F0164
:1015A000C2F30322595C9A5C01F01F0102F01F0292
:1015B000D040084A1060C840074908600F2000F07A
:1015C0000DF808B1012080BD00F04AF8002080BD70
:1015D000184402580C00002410000024002070471A
:1015E0000278114943780B60D2B143684B60037BAA
:1015F00042EA0372C37A42EA0362837A42EAC3424E
:10160000437B42EA8342837B42EA4342C37B42EA12
:101610000342437A007A42EA032242EA400001E0B0
:10162000002048608860704798ED00E00B48BFF3E9
:101630005F8F016821F480310160002101677047EC
:10164000064940F001000867086840F480300860EF
:10165000BFF34F8FBFF36F8F704700BF24ED00E0E3
:1016600070470000002808D400F01F010122400943
:1016700002FA01F1014A42F82010704700E100E04F
:1016800070B5134B4FF0FF351B68C3F30223DC1E0C
:1016900083F0070338BF002405FA04F6B243042B95
:1016A00028BF042305FA03F39943A1401143BDE881
:1016B000704002F03FBA00BF05494FF6FF030A68C9
:1016C0001A4060F30A22034810430860704700BFC5
:1016D0000CED00E00000FA0580B500F043FD024982
:1016E000024A01F050BA00BF20440258D8D5000881
:1016F000B0B51C498B6A8A6ACC6ACD6BC2F30532DD
:10170000B2B1C4F3001401F0D1FB15D0BBB90B6822
:101710009B0651BF9FED161A0B68C3F3C103154C0E
:1017200042BF24FA03F301EE103AB8EE411A08E082
:101730000021C0E9001112E09FED0C1A01E09FEDBD
:101740000A1A8B6B9FED0C3A01F086FB8A6B01F055
:1017500065F98A6B01F0CCFA896B01F068FA816057
:10176000B0BD00BF004402580024744A20BCBE4BE8
:101770000024744C0090D00300000039B0B51C491F
:101780008B6A8A6ACC6A4D6CC2F30552B2B1C4F35B
:10179000002401F08BFB15D0BBB90B689B0651BF31
:1017A0009FED161A0B68C3F3C103154C42BF24FA10
:1017B00003F301EE103AB8EE411A08E00021C0E947
:1017C000001112E09FED0C1A01E09FED0A1A0B6C5C
:1017D0009FED0C3A01F040FB0A6C01F01FF90A6C16
:1017E00001F086FA096C01F022FA8160B0BD00BFF9
:1017F000004402580024744A20BCBE4B0024744CA0
:101800000090D003000000392DE9F0470446C0786D
:10181000A74F00071CD5606E4FEA3051032908D846
:10182000DFE801F002090C11F96941F40031F961B6
:1018300009E001260DE001F0B2F901E001F0A5FA9E
:10184000064630B9606E396C21F4401108433864A3
:1018500000266078BA46C00701D1354620E0606DA9
:1018600004280BD83546DFE800F0030C0F121200F5
:10187000F869354640F40030F86108E00125012799
:101880000FE001F0FBFA01E001F054F905462F46A4
:101890003DB9606D01F06CF921F0070101F0DFF94D
:1018A0003746607880071ED5A06D4FEAB010042837
:1018B00007D8DFE800F003090C0F0F0001F003F96F
:1018C00008E0012501260FE001F0D8FA01E001F05F
:1018D00031F905462E463DB9A06D01F049F921F4D4
:1018E000E07101F0BCF93E466078400702D4B04692
:1018F000574623E0D4F8A40057464FEA7050042816
:1019000007D8DFE800F0030A0D10100001F06AF9B3
:1019100009E001254FF0010810E001F0AFFA01E005
:1019200001F008F90546A84645B9D4F8A400B96CF9
:101930000025B04621F460010843B86460780007D0
:1019400020D5D4F8A8004FEA3060042807D8DFE893
:1019500000F003090C0F0F0001F044F908E0012525
:10196000012710E001F08AFA01E001F0E3F80546F2
:101970002F4645B9D4F8A80001F0F0F821F0E06155
:1019800001F01FF94746E07880071DD5A06C4FEAAB
:101990003010032806D8DFE800F00B02080B01F036
:1019A00092F805E0012501260FE001F0F8F8054660
:1019B0002E4655B9A06CDAF83C100025524621F0AD
:1019C00030010843CAF83C003E466078C0061ED588
:1019D000E06D4FEA3030042807D8DFE800F0030953
:1019E0000C0F0F0001F06FF808E0012501270FE050
:1019F00001F044FA01E001F09DF805462F463DB99B
:101A0000E06D01F0B5F821F4E04101F028F9374626
:101A1000607880061BD5206E4FEA3040052807D835
:101A2000DFE800F00C03090C0C0C01F08EF804E068
:101A3000012501260CE001F02FFA05462E463DB99E
:101A4000206E01F095F821F4E02101F008F93E46FE
:101A5000607840061DD5D4F8AC004FEA30700528F8
:101A600007D8DFE800F00C03090C0C0C01F06DF84E
:101A700004E0012501270DE001F00EFA05462F468E
:101A800045B9D4F8AC0001F069F821F0E04101F06B
:101A900098F837466078000618D5E06E68B1B0F166
:101AA000005F07D0B0F1805F22D101F00CF804E0B4
:101AB0001044025801F049F805462E463DB9E06E43
:101AC00001F056F821F0405101F0C9F83E46E078A7
:101AD000C00702D1B04657461EE0606C5746032847
:101AE00009D8DFE800F00F020C0F01F07BF809E0E5
:101AF00001250126EBE701254FF001080CE001F07C
:101B00004EF80546A8463DB9606CF96B0025B04615
:101B100021F003010843F863A078400601D447464A
:101B200016E0D7F8F00340F48070C7F8F003FFF731
:101B30000BFD0646D7F8F003C00507D4FFF704FDF8
:101B4000801B6428F6D90325032701E02F467DB1C9
:101B50002078C00747D0A06F4FEAF000052832D8A0
:101B6000DFE800F037033437373700F0EEFF2FE0BF
:101B7000DAF86010D4F8B0005546414011F4407FC7
:101B80000BD0296E2A6E42F480322A6621F440710D
:101B90002A6E22F480322A662966B0F5807F40F0F2
:101BA000C381FFF7D1FC064641F288390327DAF8F2
:101BB0006000800700F1B581FFF7C6FC801B03259C
:101BC0004845F4D9C4E7012501260DE001F064F988
:101BD00005462E4645B9A06F00F0EAFF21F0380116
:101BE0000843CAF844003E46207880071AD5606F43
:101BF000052807D8DFE800F00C03090C0C0C00F0F6
:101C0000A4FF04E0012501270DE001F045F9054698
:101C10002F4645B9606F00F0CBFF21F00701084364
:101C2000CAF844003746207840071BD5D4F8900006
:101C3000052807D8DFE800F00C03090C0C0C00F0B5
:101C400084FF04E0012501260DE001F025F9054699
:101C50002E4645B9D4F8900000F080FF21F007012E
:101C600000F0AFFF3E46207880061ED5D4F88C00E9
:101C70004FEA3070052807D8DFE800F00C03090CA4
:101C80000C0C01F0FBF804E0012501270EE001F047
:101C90007CF805462F464DB9D4F88C0000F088FF3B
:101CA00021F0E0410843CAF8440037462078400656
:101CB0001DD5D4F898004FEAB020052807D8DFE8F2
:101CC00000F00C03090C0C0C01F0D8F804E001251D
:101CD00001260DE001F059F805462E4645B9D4F825
:101CE000980000F03BFF21F4E05100F06AFF3E460F
:101CF000207800061DD5D4F89C004FEA70300528E6
:101D000007D8DFE800F00C03090C0C0C01F0B6F862
:101D100004E0012501270DE001F037F805462F46C4
:101D200045B9D4F89C0000F019FF21F4604100F09F
:101D300048FF37462068010714D5D4F88010B1F564
:101D4000805F07D101F021F8002818BF0127206823
:101D5000D4F88010DAF84420534622F4405211435C
:101D6000CAF84410C10614D5D4F89410B1F5807F98
:101D700007D101F00AF8002818BF01272068D4F81D
:101D80009410DAF84820534622F440721143CAF8FE
:101D90004810000318D5D4F8A000B0F5003F09D0D2
:101DA000B0F5803F03D010BB01F068F801E000F00F
:101DB000ECFF05462E4645B9D4F8A00000F0CEFE53
:101DC00021F4403100F0FDFE3E46A07840071FD5CB
:101DD000D4F88400B0F5401F0FD0B0F5001F09D033
:101DE000B0F5801F40F09A8000F06DFE05E00125FF
:101DF0000126EAE701F050F805462F464DB9D4F820
:101E0000840000F0D5FE21F440110843CAF84400D4
:101E10003746A078C00701D13E4619E0E06CB0F526
:101E2000803F03D090B900F04EFE02E000F0B7FE14
:101E300005462E4665B9E06CDAF83C10002552469E
:101E400021F480310843CAF83C00E5E7012501266A
:101E50002068810005D500F098FF002818BF0126F2
:101E6000206881031BD5E16F6FF0010202EB312284
:101E7000022A0AD34FEA31223AB1012A06D1DAF80E
:101E80001C2042F40032CAF81C200DB1012606E0E5
:101E9000DAF8442022F440721143CAF84410C10217
:101EA00007D5216FDAF8402022F000421143CAF82A
:101EB0004010C10008D5D4F8B410DAF8002022F49C
:101EC00080421143CAF80010810207D5A16EDAF8EA
:101ED000402022F080721143CAF8401041000CD516
:101EE000DAF8001021F40041CAF80010D4F8B81054
:101EF000DAF800201143CAF80010B0F1FF3F07DC08
:101F0000206DDAF83C1021F040510843CAF83C003B
:101F1000002E18BF01263046BDE8F08701250127B5
:101F200077E75546D4F8B0002A68094900F44073B1
:101F300022F47C5201EA1011B3F5407F6FF31F3099
:101F400008BF0A432A60296E084328660025E6E593
:101F5000CFFFFF002DE9F843002800F0FB807F4D04
:101F600004468846286800F00F0088420BD2286893
:101F700020F00F0040EA08002860286800F00F00F9
:101F8000404540F0E7802068C64F410709D52169E8
:101F9000BA6900F0F6FE04D9BA6922F07002114362
:101FA000B961010709D56169FA6900F0EAFE04D94F
:101FB000FA6922F070021143F961C1060AD5A169DC
:101FC000FA6902F4E062914204D9FA6922F4E0620B
:101FD0001143F961810609D5E1693A6A00F0D1FE41
:101FE00004D93A6A22F070021143396210F00201FA
:101FF0000AD0E268BB6903F00F039A4204D9BB69B7
:1020000023F00F031A43BA61C2073AD0D4E90101A1
:10201000BA6922F470621143B961012807D003281C
:1020200009D002280BD1396889030CD492E03968B1
:10203000C90508D48EE03968890104D48AE039687A
:10204000490740F187803969A94621F00701084313
:102050003861FFF779FA064641F2883560683969D8
:1020600001F03801B1EBC00F07D0FFF76DFA801B0C
:10207000A842F3D90320BDE8F88320684D4600F05C
:10208000020151B1E168BA6902F00F02914204D233
:10209000BA6922F00F021143B961296801F00F01FA
:1020A00041450AD9296821F00F0141EA0801296058
:1020B000296801F00F0141454CD1410709D521693B
:1020C000BA6900F05EFE04D2BA6922F070021143D0
:1020D000B961010709D56169FA6900F052FE04D2BD
:1020E000FA6922F070021143F961C1060AD5A169AB
:1020F000FA6902F4E062914204D2FA6922F4E062E1
:102100001143F96180060AD5E069396A01F070016E
:10211000884204D2396A21F070010843386200F025
:1021200057F8B969294A1C4BC1F30321515C01F0EE
:102130001F01C840B969186001F00F01515C01F03E
:102140001F01C8401549086005480068BDE8F8430C
:10215000FFF744BA0120BDE8F88300BF0020005219
:102160000800002480B500F033F80A49174B0A68CC
:10217000096801F00F01C2F30322595C9A5C01F077
:102180001F0102F01F02D040034A1060C8400349FB
:10219000086080BD184402580C0000241000002480
:1021A00080B5FFF7DFFF0849084A0968C1F302114B
:1021B00000F025BE80B5FFF7D5FF0349034A096843
:1021C000C1F3022100F01BBE1C440258D8D5000800
:1021D00010B534490869C0F3C20003280FD00228A3
:1021E00004BF324810BD40B908688006334858D54E
:1021F0000968C1F3C101C84010BD2B4810BD8A6AEF
:10220000886ACB6A4C6BC0F30510F0B103F0010390
:10221000C4F3CC0402F003026343022A00EE103A36
:10222000B8EE400A13D0AAB90A68920651BF9FEDD2
:10223000221A0A68C2F3C102204B42BF23FA02F2FB
:1022400001EE102AB8EE411A06E0002010BD9FED05
:10225000191A01E09FED161A0A6B9FED193A6FF3F8
:102260005F2202EE102AB8EE422A00EE032AB7EEF1
:10227000000A32EE000A02EE100A086BC0F3462094
:10228000B8EE422A013081EE021A21EE000A01EE78
:10229000100AB8EE411A80EE010ABCEEC00A10EE38
:1022A000100A10BD0044025800093D0040787D012D
:1022B0000024744A20BCBE4B0024744C0090D00310
:1022C00000000039F8B5002800F0E18004460078ED
:1022D000D14EC00712D0306900F03801B06A102921
:1022E00005D018292AD100F00300022826D1306831
:1022F000800303D56068002800F0C980207880073B
:102300004AD5306910F03801B06A26D0182901D1B9
:10231000800722D03068E168002900F0018120F0B8
:102320001900084300F077FB0546306840071BD4CE
:10233000FFF70AF9401B0228F7D94FE1606800282F
:1023400000F02581B0F5A02F00F03381B0F5803F7B
:1023500000F0338100F0AFFB32E13068400703D575
:10236000E068002800F09380FFF7E8F841F20301ED
:1023700088420AD82069716821F47C31402814BF52
:1023800041EA003041F4003005E02069716821F035
:10239000FE4141EA006070602078C0063DD530699A
:1023A00000F03801B06A082905D018291BD100F0C7
:1023B0000300012817D13068C00502D5E0698028E4
:1023C00065D1FFF7BBF841F2030188421ED8206AAD
:1023D000716821F0F841202814BF41EA806041F083
:1023E0008040706019E03068E169002900F0C08029
:1023F00040F0800000F00FFB05463068C005E0D4D7
:10240000FFF7A2F8401B0228F7D9E7E0206AF1683D
:1024100021F07C5141EA0060F0602078000738D458
:102420002078800647D42078400756D4676A67B37F
:10243000306900F03800182840F0D280B16A306B63
:10244000012F24D0A26A01F0030393421FD1E26A54
:10245000C1F3051191421AD10146226B6FF35F213E
:10246000013A914213D1626BC0F34621013A914285
:102470000DD1A26BC0F30641013A914207D1E16B45
:10248000C0F306600139884201D100204EE10120ED
:10249000F8BD706F616999B340F001007067FFF794
:1024A00053F80546706F8007BAD4FFF74DF8401B0C
:1024B0000228F7D992E03068A169002949D040F498
:1024C000805000F0A8FA054630688004ABD4FFF7CE
:1024D0003BF8401B0228F7D980E0D6F8000440F40E
:1024E0008070C6F80004FFF72FF80546D6F8000400
:1024F000C00524D4FFF728F8401B6428F6D96DE006
:1025000020F001007067FFF71FF80546706F800725
:102510007FF586AFFFF718F8401B0228F6D95DE07B
:1025200020F0010000F077FA0546306840077FF59B
:1025300033AFFFF709F800F0D7FBF6D9F6E0A06853
:1025400000286BD005287CD001287ED000F067FBE6
:102550007EE020F4805000F05EFA0546306880048A
:102560007FF561AFFEF7F0FF00F0BEFBF6D9DDE0CE
:1025700020F0800000F04FFA05463068C0057FF576
:102580004CAFFEF7E1FF00F0AFFBF6D9CEE000F074
:1025900092FA00F040FA054641F28837306880032D
:1025A0007FF5ACAEFEF7D0FF411B0320B942F5D951
:1025B000BCE0306840F480203060306840F4803007
:1025C00000F029FA054641F28837306880033FF56C
:1025D00095AEFEF7B9FF401BB842F6D90320F8BD0F
:1025E000306820F0807000F016FA0546022F08D1FE
:1025F000306880013DD5FEF7A7FF00F075FBF7D9E5
:1026000094E0306880017FF540AFFEF79DFF00F059
:102610006BFBF6D98AE000BF0044025800F0FFFAD5
:102620003067FEF791FF054641F28837306F80072B
:102630007FF5FCAEFEF788FF411B0320B942F5D9B8
:1026400074E0306F40F004003067306F40F00100FC
:102650003067FEF779FF054641F28837306F800713
:102660003FF5E4AEFEF770FF411B0320B942F5D9F8
:102670005CE004F12805B06A40F2F33188432ECDC6
:102680000843591E40EA0210B0626FF35F214FF415
:10269000FE024FF47E4000EB452080B20844A16B5F
:1026A00002EB01414FF0FE4201F4FE010844E16BF0
:1026B00002EB016101F0FE41084430634FF6F8710E
:1026C000F06A20F00100F062706B8843A16C40EA70
:1026D000C1007063206CF16A21F00C010843F062C4
:1026E000F06A616C20F002000843F062F06A40F486
:1026F0008030F062F06A40F40030F062F06A40F43A
:102700008020F062F06A40F00100F062306840F032
:10271000807000F080F90446306880013FF5B5AE66
:10272000FEF712FF011B03200229F5D9F8BD0000B6
:102730001E4800F06FBA00BF70B370B5044690F841
:10274000450015460E4628B9002084F8440020466E
:1027500000F026F8206804F10801FEF7ADFD2068BE
:10276000A2683146FEF7EEFDD4E90102E36A29468C
:10277000FEF786FD2068A16850F8212042F0010292
:1027800040F821200548016841F000410160012026
:1027900084F84500002070BD0120704700400052C1
:1027A00070470000014800F025BB00BF10E000E0CA
:1027B00058B110B500F045FB03D100F075FA00F0F8
:1027C00006F800F07EFB00F086B9012070477047E4
:1027D00090F83D1001290ED1022180F83D10084AE1
:1027E00001688868734600F001FB9E4618BFB2F589
:1027F000803F02D170470120704700F027BB00BF27
:102800000700010010B548B10446D0F8800008B9AF
:1028100000F0C0FA00F019F9012801D1012010BD23
:10282000A06A08B100F059FA00F04CFA21F02A0130
:10283000816000F027FBBDE8104000F0D9BE704772
:1028400009490968084018BF012070470029064956
:10285000096814BF084321EA0000034908600868BA
:1028600002490860704700BF546D002400100060EA
:10287000B0B5234A9168B1F1FF3F38DD21491368B3
:1028800022A44B62137981F828305379CB625369C3
:102890000B63D3888B8693688B63D368CB63926911
:1028A0000A64194B0022292A06D0A55CDD601D6848
:1028B0006D06FCD50132F6E700220A600A68002A9C
:1028C000FCD002684A6042688A608268CA60C26856
:1028D0000A6102694A6142698A618269CA61C069A2
:1028E00008620020086008680028FCD0B0BD91682C
:1028F00041F000419160816902318161B0BD00BF4A
:1029000024ED00E0280100241C1001400D0A456E52
:1029100074657220486172644661756C745F4861C9
:102920006E646C65722C2053797374656D204861F8
:102930006C742E0D0A000000F8B5044607280ED866
:10294000FF2500260027072E17D8F0B200F02CF83C
:1029500000281CBF3546012007440136F3E7092C47
:1029600015D0082C1DD1002000F01EF8C8B10120A0
:10297000012400F019F8A8B913E0F9B285EA0400BF
:1029800081F001010843B0FA80F044090AE0012017
:1029900000F00AF828B1022000F006F808B101247E
:1029A00000E000242046F8BD074901EBC00251F8C1
:1029B0003000938800699179184018BF0120081AE7
:1029C000B0FA80F04009704710D60008B8EE400B0E
:1029D00081EE000B53EC102B3047BFF34F8FBFF34A
:1029E0006F8F704706EB460084F80A800130C0B252
:1029F0000AF0C6B860602168084020607047608AAD
:102A0000D4E90012105C8862608A01306082A1897A
:102A100080B2884270473060FEF796BDC2F346220E
:102A2000B8EE433A32EE002A81EE031A21EE021A82
:102A300002EE102AB8EE422A32EE002A81EE022A75
:102A4000BCEEC22A80ED002A70472420C4F8800022
:102A50002068016821F001010160204600F0F4BD0A
:102A60002369D3F80130B3F1EF3F7047D6F8A820BF
:102A7000114488427047046830462946626809F06C
:102A8000EFB90020CDE90000029000210023049856
:102A90007047C4F8DC00D4F8DC007047C0B20AF01C
:102AA0006FB8386840F001003860386800F0010005
:102AB000309030987047306820F480303060306853
:102AC00020F480207047DAF81C00514640F40030B2
:102AD000CAF81C007047012084F8480084F83E00C2
:102AE00084F83F0084F8400084F8410084F84200F4
:102AF00084F8430084F8440084F8450084F84600D4
:102B000084F8470084F83D00002010BD586D9C46B5
:102B100000F0070005287047A268D4F8DC10914245
:102B20007047D6F8A8301A4491427047DAF800107E
:102B30008F42704704F12400002100F039BAD6F822
:102B40002CC00BF10400DC457047201D012100F072
:102B5000CFB9F16A04F13000A1427047DAF84810A9
:102B6000002552467047D6F8A8502944884270473D
:102B7000DAF84010002552467047CDE90090204613
:102B80005946029770470968C1F30211515C01F080
:102B90001F01C84080BDD6F8A420BA427047201D4E
:102BA000022100F0A5B9F16A04F14400A142704786
:102BB000DAF844100025524670477B6813F1050F80
:102BC00070470843CAF848007047886900F110024E
:102BD000A24270473860FEF7B7BCF16A04F12800E2
:102BE000A1427047F86940F40030F86170473A68D4
:102BF00012F1050F70479AED000A41EC110B704776
:102C0000386840F002003860386800F00200009038
:102C100000987047016841F0020101607047306F11
:102C200020F001003067306F20F004007047C1F3DE
:102C3000066102EE101AB8EE422A32EE000A81EE68
:102C4000000ABCEEC00A10EE101A704751F8041CBE
:102C5000B1F1EF3F7047316B013188427047084353
:102C6000CAF84000704797E80C02D7E9030770479D
:102C7000D6F8A820104481427047204659463A466B
:102C80007047CDE90017204659467047D7E9002321
:102C9000D7E90217704700222B46204600F07EBE7F
:102CA000306B013081427047002084F83C002046A0
:102CB0007047F06A0BF1040158457047B96811F18B
:102CC000050F70472068416821F490414160816898
:102CD0007047F269013291427047204600F034BCDF
:102CE00007F10801B8427047411B032002297047D1
:102CF000C2F3064202EE102AB8EE422A32EE002A51
:102D000081EE022ABCEEC22A80ED012A7047E268F9
:102D10001368B3F1EF3F7047F169013188427047A2
:102D2000D6F8A41059457047C96904F13402084423
:102D300082427047D6F8A830194488427047D6F8C6
:102D4000A420A242704703F1040C83427047D6F8D6
:102D5000A860304481427047D6F8A410B942704749
:102D600007F10C01B8427047FF6817F1050F704773
:102D7000D6F8A40083427047016841F00101016068
:102D8000704702F070029142704704F12400022162
:102D900000F00EB9002084F87C002046FFF74FBDFC
:102DA000D6F8A410A1427047D6F8A400B8427047E4
:102DB00002F1040C824270472046342109F04CB9DC
:102DC000F8683A68CDE90010594620467047D6F8B1
:102DD000A8502B4499427047D7E900232046594612
:102DE0007047D6F8A8603044874270470240002000
:102DF000062A7047016821F0020101607047515CAA
:102E000001F01F01C84080BDB8626FF35F214FF42D
:102E10007E4000EB42204FF0FE4280B208444FF467
:102E2000FE0101EB034101F4FE010844296902EBB4
:102E3000016101F0FE4108447047326B013291425A
:102E40007047044690F83D0000287047086840F03D
:102E500001000860002070476FF35F2302EE103A14
:102E6000B8EE422A00EE032A03EE102AB7EE000A5B
:102E70007047F16A04F13400A1427047201D00211F
:102E800000F036B8016841F001010160204670474A
:102E9000F06810F00200704704F12400012100F0F6
:102EA00087B8F16A04F58070A1427047C5F3CC057C
:102EB00003F003036C43022B00EE104AB8EE400A05
:102EC0007047022084F83D00211D206800F0D8BA28
:102ED00021F4D0710160816821F00101816020201E
:102EE000C4F880007047D6F8A4205A457047000007
:102EF000F8B5B74F0546B86A00F00300032804BFD1
:102F00000120F8BD38680C4620F08060FFF762FEB3
:102F100006463868000105D5FEF716FB801B02281F
:102F2000F7D941E095E80F00BE6A26F47C360139F6
:102F300046EA0030FFF768FFB8636869F96A21F074
:102F4000C0010843F862A869F96A21F0200108432A
:102F5000F8624FF6F871F86A20F01000F862F86B2A
:102F60008843E969012C40EAC100F863F86A40F03F
:102F70001000F8624FF4001008BF4FF48010002CCE
:102F800008BF4FF40020F96A0843F862386840F03F
:102F90008060FFF71FFE04463868000106D4FEF784
:102FA000D3FA001B0328F7D30320F8BD0020F8BD97
:102FB000F8B5874F0546B86A00F00300032804BF40
:102FC0000120F8BD38680C4620F08050FFF702FE63
:102FD00006463868800005D5FEF7B6FA801B022841
:102FE000F7D941E095E80F00BE6A26F07C760139FA
:102FF00046EA0050FFF708FF38646869F96A21F46F
:1030000040610843F862A869F96A21F40071084335
:10301000F8624FF6F871F86A20F48070F862786C04
:103020008843E969012C40EAC1007864F86A40F4F9
:103030008070F8624FF0807008BF4FF40000002CE1
:1030400008BF4FF48000F96A0843F862386840F01E
:103050008050FFF7BFFD04463868800006D4FEF7B5
:1030600073FA001B0328F7D30320F8BD0020F8BD36
:10307000FEB50C48016841F002010160006800F0F3
:103080000200009003200490002003900120029091
:1030900004200190009801A90348FEF78FF906B0BB
:1030A00080BD00BFE0440258000402587047000091
:1030B000044804210160704702484FF480210160F8
:1030C000704700BF1804025810B5EC4CA06828B136
:1030D000A0680138A06001D10120A070002001216A
:1030E00030280ED02218136A4BB1136A013B1362C9
:1030F00005D15177137F012B01D1536A13620C3034
:10310000EEE760686FF000410130606060688842FF
:1031100001D10020606009F043FD607801306070EB
:10312000C0B20A2838BF10BD00206070BDE8104052
:1031300009F034BDB0B52448244BD0F8801041F4D8
:103140007001C0F88010196801F00F01062904D839
:103150001968072262F303011960A9491D4D0A6825
:1031600042F001020A6000220A610C682C400C60E7
:103170001C68240704D51C68072565F303041C603C
:10318000154B8A61CA610A628B62144BCB62144B85
:103190000B634A638B63CA630B644A640B6823F452
:1031A00080230B600A660F490968B2EB517F02D198
:1031B0000D4901220A600D4943F2D2020A604FF024
:1031C00000610160B0BD00BF08ED00E000200052CA
:1031D000004402587FEDF6EA000202020000FF01FF
:1031E000800201010010005C088100510040005283
:1031F0002DE9F0419CB0FEF719FA12208DF80C0071
:103200000DF10408032400258DF80F4004954FF0BC
:10321000105002900120ADF804004FF48070ADF81A
:103220000D004046FEF7DCF90F208DF80C008DF8FC
:103230000F40ADF80D504FF0C040029040F2011029
:10324000ADF804004FF0807004904046FEF7C8F9D6
:103250000420FEF7F5F96748016889030BD4FFF7EE
:10326000BCFBC0F83C52FFF7B8FB016841F40031E9
:103270000160FFF7B2FB0168C90324D40021016794
:1032800043F6E07CBFF34F8FC26EC2F3C903C2F3B3
:103290004E319A075C1C0CEA41161746234647EA52
:1032A000060507F14047013BC0F84C52F7D14B1ED1
:1032B00000291946EFD1BFF34F8F016841F48031E7
:1032C0000160FFF78AFBFEF75FF914A82021FDF7E4
:1032D0001BFB08F108004421FDF716FB4648016876
:1032E00021F0040101600021009144490A6822F0A4
:1032F00001020A60096801F001010091C16841F40E
:103300004041C160C16801F4404100910099C16829
:103310008904FCD5022010900E90CDE90A00A0216E
:1033200000240D91082508940494129411954FF4EB
:103330008030029005210C910120019004200F9013
:1033400001A8FEF7BFFF00B1FEE740201B90CDE9CA
:1033500018004FF480611A91CDE9164503201590AD
:1033600004213F20149014A8FEF7F4FD00B1FEE7FD
:10337000234C206840F080002060D4F8F40040F036
:103380000200C4F8F400D4F8F40000F00200009049
:103390000098FEF70DF8D4F8DC0040F00050FFF77D
:1033A00078FB00F0005000900098D4F8DC0040F06A
:1033B0008040FFF76EFB00F0804000900098D4F84A
:1033C000DC0040F00040FFF764FB00F0004000909C
:1033D0000098D4F8A80040F08050C4F8A800D4F8B1
:1033E000A80040F00050C4F8A80009F0C7F81CB0CD
:1033F000BDE8F08114ED00E00C4802582C040058A0
:103400000044025810B51C4C61682068890708D533
:10341000800706D54FF6FD70FFF7ECFA1748C06835
:10342000804761682068490708D5400706D54FF6F0
:10343000FB70FFF7DFFA1148006980476168206878
:10344000090708D5000706D54FF6F770FFF7D2FA3F
:103450000A484069804761682068C90601D5C006EE
:1034600000D410BD4FF6EF70FFF7C4FA034880692F
:10347000BDE81040004700BF0C000040840000245D
:1034800070B5294A0368904205D0B0F1804F1CBF47
:10349000264CA04234D123F070034C682343904261
:1034A0000ED0B0F1804F0BD0204CA0421CBF204C5E
:1034B000A04205D0204CA0421CBF1E4CA04229D1E6
:1034C000CC6823F4407323434E6923F080030C68D7
:1034D0008D6833430360C562846290420BD0154A05
:1034E000904208D0154A904205D0154A904202D029
:1034F000144A904201D1096901630121416170BD03
:103500000B4CA042C7D00B4CA042C4D00A4CA042E6
:10351000C1D0C6E7094CA042D2D0094CA042CFD0BE
:10352000084CA042CCD0CFE700000140000400408E
:103530000008004000040140000C00400040014031
:10354000004801400044014010B5816ACA0706D016
:103550000268C36A546824F40034234353608A0722
:1035600006D50268036B546824F480342343536007
:103570004A0706D50268436B546824F48024234329
:1035800053600A0706D50268836B546824F400442C
:1035900023435360CA0606D50268C36B946824F4BB
:1035A0008054234393608A0606D50268036C9468AE
:1035B00024F40054234393604A060FD50268436CF9
:1035C000546824F480141C435460B3F5801F05D163
:1035D000836C546824F4C00423435360090606D561
:1035E0000168C06C4A6822F400221043486010BD94
:1035F000BCB504460020C4F88800FDF7A5FF0546C9
:1036000020680168090708D56FF07E4000904FF4EC
:103610000011FFF740FB58B920680068400709D542
:103620006FF07E4000904FF48001FFF734FB08B14B
:103630000320BCBD00202021C4F8801084F87C0049
:10364000C4F88410BCBD0000FEB504460168806863
:10365000974ED4E903230D682E4018436569636EC5
:103660002843E56928431843924B30430860924E43
:10367000486820F4405010434860A069B1421CBF24
:10368000226A10438A681A408C4B10438860626A31
:10369000C86A20F00F001043C8628948814228D0D0
:1036A000884881422FD08848814236D0874881425D
:1036B0003DD08748814200F043808648814200F037
:1036C0004880B14200F04E808348814200F056802D
:1036D0008248814240F06880586D9C46C0F3C20029
:1036E000052800F262800127DFE800F06054565898
:1036F0005A5CFFF70BFA00F258800027DFE800F071
:10370000564A4C4E5052FFF701FA00F24E80002705
:10371000DFE800F04C4042444648FFF7F7F900F27A
:1037200044800027DFE800F04236383A3C3EFFF79D
:10373000EDF93AD80027DFE800F0392D2F31333585
:10374000FFF7E4F931D80027DFE800F0302426281D
:103750002A2CFFF7DBF928D80027DFE800F0271B29
:103760001D1F2123986D9C4600F0070005281CD8DA
:103770000227DFE800F01B0F11131517586D9C4648
:10378000C0F3C200052810D80127DFE800F00F03BE
:103790000507090B042709E0082707E0102705E0C3
:1037A000202703E0402701E09C4680277748B1426C
:1037B0000FD00121B5F5004F1BD1082F25D8DFE828
:1037C00007F00570C7C773C7C7C78F00FEF7E8FCCF
:1037D0008AE0402F30D0042F31D0082F33D0102F63
:1037E00039D0202F41D0022F40F0B180FDF774FF77
:1037F0002DE0082F14D8DFE807F0058CABAB8FABBA
:10380000ABAB9300FEF7CCFC8EE0102F00F0A8804D
:10381000202F6BD0402F40F09B804FF4004065E09C
:10382000102F00F0A880202F00F08080402F40F063
:103830008F804FF4004079E04FF4004015E0684677
:10384000FDF756FF02E06846FDF798FF0198002853
:103850007BD0626A09E0DCF8000080064C4804D5A1
:10386000DCF80010C1F3C101C8404A4931F8121018
:103870006268B0FBF1F002EB4201884267D3B0EB23
:10388000023F64D8010E000210EB520041F100012A
:103890000023FDF701F8A0F540713F4A914252D94B
:1038A00055E0FEF787FC1FE06846FDF721FF1AE0B0
:1038B000F369FFCFFFF4FF11000C005800440258D9
:1038C0000044004000480040004C004000500040D0
:1038D00000780040007C00400014014000100140CE
:1038E0006846FDF74BFF019878B3626A294931F8C1
:1038F0001210B0FBF1F061684A0802EB4000B0FB27
:10390000F1F04FF6F071014021D0C0F342000843BE
:1039100019E0FEF74FFC07E06846FDF7E9FE02E01C
:103920006846FDF72BFF019878B1626A194931F8B2
:103930001210B0FBF1F0616800EB5100B0FBF1F048
:1039400080B2102803D32168C860002100E0012163
:1039500000204FF00112C4E91A2020670846FEBD7E
:10396000DCF8000080060A48C0D5DCF80010C1F37E
:10397000C101C840BAE7DCF8000080060448D5D58C
:10398000DCF80010C1F3C101C840CFE700093D00D9
:103990000090D003E8D50008FFFC0F002DE9F843A4
:1039A000DDF820900446984616460F46006809F157
:1039B0000105C1693940C91BB1FA81F14909B14218
:1039C0001CD1002DF5D0FDF7BFFDA0EB080220684B
:1039D00001684A4515D8B9F1000F12D04907E8D55A
:1039E000C1690905E5D54FF4006101620168FFF77F
:1039F0006FFAC4F8840004F1880006E00020BDE8F6
:103A0000F883FFF765FA04F18400002184F87C1044
:103A1000202101600320BDE8F8830000034800F086
:103A200007B800BF01482C3000F002B8D0000024D5
:103A300070B504460068C66905688168B10616D588
:103A4000406AA168E28A8854E18A4A1CE282E189DC
:103A500092B28A4201D30022E282628B8A4202D26F
:103A6000618B01316183616A09B1C0B28847300658
:103A700018D5280616D5A08A58B1012084F8280048
:103A8000FEF7BDFF01D300206082A08A0138A0822A
:103A900008E02068016821F080010160016841F0C0
:103AA00040010160700617D5680615D5A08A40B19F
:103AB000FEF7A5FF01D300206082A08A0138A08212
:103AC0000AE02168206A0A6822F040020A6000B118
:103AD0008047002084F828002068016A41F0010135
:103AE0000162016A41F002010162016A41F00401D0
:103AF0000162016A41F008010162016A41F01001AE
:103B00000162016A41F040010162016A41F4807181
:103B10000162016A41F400710162016A41F40031FD
:103B20000162016A41F480110162016A41F02001E1
:103B3000016270BD10B500F00F03064CB0F1FF3FFD
:103B4000034A2344C8BF83180801187010BD00BF82
:103B500000E400E014ED00E070B5EFF3108372B6FE
:103B600084685CB10269151D0D6011680161106007
:103B7000611E8160002083F3108870BD00240C60FA
:103B80002AB1D24D2C6834B183F3108801E083F35D
:103B90001088102070BD154C2468E1672F49C4E9D6
:103BA0001A10416A4E1C4662D4F8F8600136C4F817
:103BB000F86031B1006A206750F8741F61670C67C4
:103BC00003E00462246704F174000121A163E2644C
:103BD00004600821216328680130286083F310887D
:103BE000204602F0C5FCD4F8840070BD9C0100247E
:103BF00010B5EFF3108272B6184C836EA34229D130
:103C0000D0F8F8308B4225D1C16E19B30B68384C0F
:103C1000A3421FD14C6AECB100238366013C4C6285
:103C200006D0D0E91C345C6723670C6A844200D15B
:103C30000B62016B08290DD11021C0F88410F049E6
:103C40000B6801330B6082F3108802F07BFBEFF30B
:103C5000108272B682F3108810BD00BFF13B0008DD
:103C60002DE9F0410F463021984616460446FCF7F0
:103C70004BFEF11C069867600027454621F00301C2
:103C800020F00300C4E90580E1610A1DB0FBF2F3F6
:103C90009F4204D0AE182E6001373546F8E78242C5
:103CA000C4E9023302D90520BDE8F081681A002179
:103CB00040F8041C0E49C4F81080EFF3108072B66F
:103CC00021602E490A6832B12D4B1B68DD6ADC6227
:103CD00005F1280602E02A4E2346254634600132CB
:103CE000C4E90A350A6080F310880020BDE8F0813D
:103CF000434F4C422DE9F041204BEFF3108272B656
:103D0000002101601C68013C1C6007D0D0E90A1347
:103D1000CB6299621A4B1B68834201D1184B196020
:103D2000B74CD0E908154FF00008C0E90888012712
:103D300020680130206082F3108895B1EFF3108085
:103D400072B6C1F88470C1F86880226801322260BE
:103D50000E6F80F31088084602F0F4FA013D3146F8
:103D6000EBE7EFF3108072B621680139216080F330
:103D7000108802F08FFA0020BDE8F081880100244D
:103D800084010024B0B5EFF3108472B609B1456820
:103D90000D600AB18168116004990BB1C2681A60A4
:103DA000059A09B1036A0B6006990AB1436A136068
:103DB00009B1806A086084F310880020B0BDFF203C
:103DC0007047FF2070470000F8B5EFF3108172B61E
:103DD000D0F824E0BEF1010F02D881F3108843E04F
:103DE000026ABEF1020F166F07D1D26AF36A9342DC
:103DF00038BF066281F3108836E0DFF8F8CE14464B
:103E0000DCF800300133CCF80030D56AF36A81F376
:103E10001088EFF3108172B6076ABC4201D0456A80
:103E200007E0AB4238BF3246456AAE4501D137465E
:103E300002E03A463C46AE463E6FA642E5D1DCF88B
:103E40000030013BCCF80030A24209D0D2E91C3549
:103E500002625D672B671467636F536762671A6757
:103E600081F3108802F016FA0020F8BDB0B50446C0
:103E7000EFF3108272B6014654F8043D186A48B157
:103E80005C6A013C5C620ED0D0E91C451C6265672F
:103E90002C670AE09868196921601C6101309860FC
:103EA00082F310880FE000241C6200238366C0F8B0
:103EB0008430C36F1960CE490B6801330B6082F305
:103EC000108802F03FFA0020B0BD00BFB801002406
:103ED0002DE9F04106462D480F46EFF3108172B6EA
:103EE00098460468D01C20F003053462304681F304
:103EF0001088294600F07EF9EFF3108172B668B998
:103F0000306AA042F1D100203860B8F1000F0BD028
:103F1000B74802686AB181F3108807E03860002072
:103F200081F31088BDE8F08181F310881020BDE88E
:103F3000F081324AC4E91A26C4E91E57D4F8F820A1
:103F40000132C4F8F820B26A531CB36232B1726A0B
:103F5000226752F8743F63671C6703E0746224674A
:103F600004F174020123A363C4F84C801460092394
:103F70002363026801320260204681F3108802F058
:103F8000F7FAD4F88400BDE8F08100BF9C0100245A
:103F900010B5EFF3108272B6184C836EA34229D18C
:103FA000D0F8F8308B4225D1C16E19B30B68314C73
:103FB000A3421FD18C6AECB100238366013C8C6262
:103FC00006D0D0E91C345C6723674C6A844200D178
:103FD0004B62016B09290DD11021C0F8841084496E
:103FE0000B6801330B6082F3108802F0ABF9EFF33A
:103FF000108272B682F3108810BD00BF913F000896
:10400000B8010024F8B50F4634211D461646044673
:10401000FCF77AFC25F00300E061C4E90466A661C0
:10402000676031180838A0600220E06041F8086D30
:10403000E94870604C6031600020E8492062EFF38D
:10404000108072B621602E490A6832B12D4B1B6870
:104050001D6B1C6305F12C0602E02A4E2346254603
:1040600034600132C4E90B350A6080F31088002007
:10407000F8BD00BF455459422DE9F041204BEFF304
:10408000108272B6002101601C68013C1C6007D0E0
:10409000D0E90B130B63D9621A4B1B68834201D121
:1040A000184B1960ED4CD0E909154FF00008C0E934
:1040B0000988012720680130206082F3108895B1BB
:1040C000EFF3108072B6C1F88470C1F8688022687E
:1040D000013222600E6F80F31088084602F032F938
:1040E000013D3146EBE7EFF3108072B621680139EC
:1040F000216080F3108802F0CDF80020BDE8F08147
:10410000900100248C010024B0B5EFF3108472B646
:1041100009B145680D600AB18168116004990BB15D
:10412000C2681A60059A09B1436A0B6006990AB120
:10413000836A136009B1C06A086084F310880020A4
:10414000B0BDFF207047FF2070470000F8B5EFF3C7
:10415000108172B6D0F828E0BEF1010F02D881F3C9
:10416000108843E0426ABEF1020F166F07D1D26A8F
:10417000F36A934238BF466281F3108836E0DFF875
:1041800044CF1446DCF800300133CCF80030D56A57
:10419000F36A81F31088EFF3108172B6476ABC426C
:1041A00001D0856A07E0AB4238BF3246856AAE452A
:1041B00001D1374602E03A463C46AE463E6FA64243
:1041C000E5D1DCF80030013BCCF80030A24209D048
:1041D000D2E91C3542625D672B671467636F5367D2
:1041E00062671A6781F3108802F054F80020F8BD66
:1041F000B80100242DE9F041EFF3108872B68C4627
:10420000D0E9023103EBC103103B63453BD9744B4A
:104210004E1C714900278E461D68436905625C6823
:104220007146744514D107B943611F68FC1A083CF4
:1042300064452DD2D7E90041724671450AD1C16863
:104240001C600139C1604169B94207D1436105E091
:104250001B6804E0002E18BF013E2346012788F3A7
:104260001088002E18BF013EEFF3108872B6016A65
:10427000A94203D0C168436905624E1C002ECED10D
:1042800088F3108801E088F310880020BDE8F081F1
:10429000002CF5D0A4EB0C0114290AD30CEB030578
:1042A000C1680131C16045F8087F1D60C5F804E0B0
:1042B00001E03D46A44681685860A1EB0C01083935
:1042C000816041698B4208BF456103F1080088F3B2
:1042D0001088BDE8F08100BF2DE9F047EFF31081B1
:1042E00072B630B150F8044C3B4A944218BF002CCF
:1042F00004D181F310880320BDE8F087924622683C
:10430000364B9A42F5D1BA4BA0F1080240F804AC02
:104310001F682762534650F8080CA368801A184497
:10432000A0606069824238BF6261A06A00284DD0F7
:1043300001204FF00008DFF8809F002841D0656A17
:104340002046AE6F81F310883146FFF753FFEFF33D
:10435000108172B62762A0B3626A95420CD1AA6F2F
:10436000B24209D1A26A013AA26214D0D5E91C2353
:10437000626253671A6710E050F8082D5346C0F880
:1043800004A0121AA3681A44A2606269904238BF5E
:104390006061A06AD1E7C4F82480EA6FC5F868803C
:1043A000C5F884801060D9F800000130C9F8000019
:1043B00081F31088284601F0C5FFEFF3108172B633
:1043C000E7E781F3108801F065FF01E081F31088D1
:1043D0000020BDE8F08700BFEEEEFFFF45545942D4
:1043E0009C010024B0B5EFF3108272B6814C836E4D
:1043F000A34230D1D0F8F8308B422CD1C16E51B3EA
:104400000B68284CA34226D14C6924B30023836651
:104410000B6953B1013C4C610AD0D0E91C45834281
:1044200065672C6706D10C6104E00123CB6001E0D5
:1044300000230B61016B07290DD10721C0F88410FF
:10444000F7490B6801330B6082F3108801F07AFFA3
:10445000EFF3108272B682F31088B0BDB801002469
:1044600070B50D4630210446FCF74EFA0D496560E3
:10447000EFF3108072B621602D490A6832B12D4BDE
:104480001B68DD69DC6105F1180602E0294E234650
:10449000254634600132C4E906350A6080F310888D
:1044A000002070BD4E4456442DE9F041204BEFF3FF
:1044B000108272B6002101601C68013C1C6007D0AC
:1044C000D0E90613CB6199611A4B1B68834201D175
:1044D000184B1960D24CD0E904154FF00008C0E920
:1044E0000488012720680130206082F3108895B18C
:1044F000EFF3108072B6C1F88470C1F8688022684A
:10450000013222600E6F80F31088084601F01AFF16
:10451000013D3146EBE7EFF3108072B621680139B7
:10452000216080F3108801F0B5FE0020BDE8F08125
:10453000800100247C010024F8B5EFF3108572B6E9
:104540008468066AB44304EA01077E1A18BF01268C
:1045500077B106EA52065EB9D2071C602AD04269DA
:104560000AB102691AB3826822EA0101816021E07E
:10457000069F17B1F44E34680CB107201BE0F14CD4
:10458000DFF870C02468C4E91E13D4F8F810C4F82A
:104590008020C4E91AC00131C4F8F810416969B13A
:1045A0000269226752F8743F63671C670AE0026A77
:1045B00011430162002085F31088F8BD046124676F
:1045C00004F1740214600122A2630131E7644161C5
:1045D0000722226330680130306085F3108820465E
:1045E00001F0C6FFEFF3108572B6D4F88400E2E75D
:1045F0009C010024E5430008B0B5EFF3108472B6C7
:1046000009B145680D601AB18168056AA943116056
:1046100004990BB102691A60059A09B143690B60EC
:104620000AB18069106084F310880020B0BDFF20BB
:104630007047FF20704700002DE9F04F85B0044619
:10464000EFF3108E72B690073DD4D4E90803A26848
:10465000019342EA010BC4F808B008B18843206214
:10466000D4E90405C8B3012D3CD1816F01EA0B05E3
:104670006B1A18BF0123002D00F0CF80D0F88050B6
:1046800005F0020603EA5603002B40F0C680C36F14
:10469000EA07C3F800B003D0A26822EA0101A160D2
:1046A0000021C4E90411C0F884108166F2490A6847
:1046B00001320A608EF3108801F044FEEFF3108E91
:1046C00072B6012794E0606918B12069002800F0F3
:1046D0009A80A0680840A06099E00DB10120E060D8
:1046E000002785E0E44A0021216111680131116051
:1046F0000022CDE903200021002202928EF31088CF
:10470000EFF3108E72B6E3683BB10020E06065699C
:10471000049FA0684BEA000B00E00746BB6FD7F888
:104720003090386FD7F8808003EA0B0CBCEB030A9B
:1047300018BF4FF0010AB9F1070F0AD1724608F00D
:10474000020E0AEA5E069646BCFA8CF25209324321
:1047500029D1B9F1070F0CD1FA6FC2F800B05FEAA6
:10476000C87202D0A2689A43A2600022C7F88420CF
:10477000BA66874207D07A6F42671067049ABA42D6
:1047800003D13A6F00E00022049262693B46013A8D
:10479000626111B1039A0B461767002139670397CD
:1047A000012102911946013DA8D104982061206A97
:1047B00028B100222262A26822EA0000A0608EF3E3
:1047C0001088CA4E029F69B10D6FEFF3108072B668
:1047D00032680132326080F31088084601F0B2FD81
:1047E0002946F0E7EFF3108E72B63068013830607A
:1047F00001998EF3108809B120468847012F08D10E
:1048000001F048FD05E0206A60EA010020628EF3B5
:104810001088002005B0BDE8F08F01990027E8E777
:10482000B8010024EFF3108272B64162002082F3D7
:1048300010887047F0B573480168013101608D49F7
:104840000968EFF30582114347D00168012944D17B
:104850006A490A686A49096842B3D2F8F030DBB3A2
:1048600000245D42C2E93C44994238BFDD436B18E5
:10487000D2E93A56ED1856F1000654F1000718BF78
:104880004FF0FF35C2F8E85018BF0026C2F8EC60C0
:10489000D0E90625D21855F1000354F100041CBFDD
:1048A0004FF0FF320023C0E9062315E042689AB1B9
:1048B000002354424360914238BFD4436218D0E988
:1048C0000445121955F1000453F100031CBF4FF0C9
:1048D000FF320024C0E904248160F0BD70B5654852
:1048E0000068EFF3058108434648016826D0012996
:1048F00024D1434A8368D0E908455E4212689A424F
:1049000038BFDE43B31800261B1955F1000456F1D9
:1049100000051CBF4FF0FF330024C0E90834374CBA
:10492000394B24681B683CB19C4202D0F14D2D6884
:1049300015B10025C4E93C2503B942600139016085
:1049400070BD00BF9C010024B801002410B5E848E8
:104950002B4A016800201268C1F8F400C1F8F02069
:1049600028494B6893B15C4248609A4238BFDC43A7
:104970002244D1E90434D21854F1000350F100006C
:104980001CBF4FF0FF320023C1E9042310BD00BF5C
:1049900070B5D748016869B31948D1F8F0200068AC
:1049A0002AB300235442C1E93C33904238BFD44378
:1049B0002218D1E93A45A41855F1000553F1000633
:1049C00018BF4FF0FF34C1F8E84018BF0025C1F808
:1049D000EC500C49D1E90645121955F1000453F188
:1049E00000031CBF4FF0FF320024C1E90624064932
:1049F000096801B170BD0349486070BD9C01002485
:104A0000041000E000020024A001002480B501F0A1
:104A1000A9F902F0B3F907480021C0E90811C0E97B
:104A20000A11C0E90011C0E90211C0E90411C0E98E
:104A3000061180BD6C01002410B50E4C206810F1E9
:104A40000F3F0AD04FF0F0302060FBF741FCFFF73A
:104A5000DDFFE4480168013101604FF0F030206073
:104A60000648006808F0D6F800202060BDE8104035
:104A7000FBF796BC14000024B8010024AC660024A7
:104A800010B5EFF3108272B69B4C836EA34229D10E
:104A9000D0F8F8308B4225D1C16E19B30B68284C81
:104AA000A3421FD1CC69ECB100238366013CCC61E9
:104AB00006D0D0E91C345C6723678C69844200D13E
:104AC0008B61016B0D290DD11D21C0F88410F449B3
:104AD0000B6801330B6082F3108801F033FCEFF3B5
:104AE000108272B682F3108810BD00BFB801002496
:104AF00070B50E46342115460446FBF705FF1049F4
:104B000025616660EFF3108072B621600E4A0D4990
:104B10000A6036490A6832B1354B1B685D6A5C62CF
:104B200005F1200602E0324E23462546346001326C
:104B3000C4E908350A6080F31088002070BD00BF0A
:104B40004554554DBC010024855000082DE9F8431B
:104B5000264BEFF3108172B6002202601C68013C04
:104B60001C6007D0D0E9082353621A62204B1B68EF
:104B7000834201D11E4B1A60C94DD0E906464FF061
:104B80000008C0E90688C2682B6801332B6042B177
:104B90000122826081F3108800F08AF9EFF310811E
:104BA00072B681F310884FF0010996B1EFF31080CF
:104BB00072B6C4F88490C4F868802968013129600D
:104BC000276F80F31088204601F0BCFB013E3C4675
:104BD000EBE7EFF3108072B629680139296080F3A2
:104BE000108801F057FB0020BDE8F88398010024ED
:104BF00094010024F8B5EFF3108372B63C4A85683F
:104C000014685DB1C268A2421AD0F9B1DFF858CF7A
:104C1000DCF80060F6B183F3108819E00121C0E9E7
:104C200002149CB30169012903D120218162E16A48
:104C30004161D4F8D810F1B10A6B0863D0621EE06C
:104C4000691C8160002083F31088F8BD83F310880D
:104C50001D20F8BD284EC4E91A60D4F8F86001366A
:104C6000C4F8F860C669AEB18769276757F8745F02
:104C700065672C6712E001460246C4F8D800C0E917
:104C80000B12D4F8D4000130C4F8D40083F3108898
:104C90000020F8BD8461246704F17407E1640121F8
:104CA000A1633C600D212163711CC161DCF800101F
:104CB0000131CCF8001083F310880169012910D16B
:104CC000E16A836A8B4288BF8162D2F8D000814258
:104CD00038BFC2F8D010D06A884202D9104600F01E
:104CE00083F8204601F044FCD4F88400F8BD00BFEE
:104CF0009C010024B8010024814A0008B0B5EFF3FC
:104D0000108472B609B145680D600AB181681160FE
:104D100004990BB1C2681A60059A09B183690B60E6
:104D200006990AB1C369136009B1006A086084F387
:104D300010880020B0BDFF207047FF2070470000A2
:104D4000F8B5EFF3108172B6D0F81CE0BEF1010F98
:104D500002D881F3108843E08269BEF1020F166F1A
:104D600007D1D26AF36A934238BF866181F3108813
:104D700036E0DFF820CF1446DCF800300133CCF801
:104D80000030D56AF36A81F31088EFF3108172B6B0
:104D90008769BC4201D0C56907E0AB4238BF3246E3
:104DA000C569AE4501D1374602E03A463C46AE46BB
:104DB0003E6FA642E5D1DCF80030013BCCF8003074
:104DC000A24209D0D2E91C3582615D672B67146766
:104DD000636F536762671A6781F3108801F05AFAAC
:104DE0000020F8BDB80100242DE9F0410446EFF39E
:104DF000108072B60D46216B51B1D4F8CC10E5622B
:104E0000A94238BF0D46E56380F31088BDE8F08104
:104E10000021E164234F0121A1630E212163C749D1
:104E20000A6802320A60D4F82C803E6880F3108849
:104E3000204601F09DFBEFF3108072B6E562D4F8D6
:104E4000CC10A94228BF2946E16380F31088204690
:104E500001F078FAEFF3108072B63968A14201D000
:104E6000226B1AB180F31088BDE8F081CA6AE16A4A
:104E700091420CD9E36B8B42F4D2934209D90122BF
:104E800002FA01F1094A136819431160EAE7A642E0
:104E9000E8D13C60A845E5D2034A42F82140E1E769
:104EA000B8010024A0010024B0660024A801002459
:104EB000F8B50446EFF3108072B6A26872B1704B79
:104EC000E1681B68994202D0DB4B1B68CBB1013A09
:104ED000A26006D080F31088002515E080F31088CA
:104EE00011E099B1D1F8D420013AC1F8D42010D002
:104EF000D4E90B231363DA62D1F8D830A3420BD183
:104F000008E080F310881E252846F8BD80F310883D
:104F1000E2E70022C1F8D820A36922692BB922B99F
:104F20000025E56080F31088EEE7D1F8C850012A2B
:104F300021D1E14A13680133136080F310882023E4
:104F4000D1F8D80006465EB13769012F03D1B76AA0
:104F50009F4238BF3B46F76A3E1A18BF3E46F2E70B
:104F6000EFF3108072B6C1F8D030116801391160CA
:104F7000AB4238BF1D46E169022911D321690129DD
:104F80000ED1CD4E31680131316080F3108820465A
:104F9000FFF7D6FEEFF3108072B631680139316049
:104FA000A66946B12169012921D12021E768A162C2
:104FB000F16A61611CE0C04E31680131316080F3FB
:104FC00010882020A062E068C16AA94202D0294668
:104FD000FFF70AFFEFF3108072B60025E560316835
:104FE0000139316080F3108801F054F98CE7002713
:104FF000D6F8D41029B1D6F8D820136B1463DC622C
:1050000003E0C6F8D840224623460131C4E90B2309
:105010000122C6F8D410C4E90226E1690139E16130
:1050200005D0D6E91C12A1614A67116701E0002191
:10503000A1610021C6F88410B166EE490A68013208
:105040000A6080F310882069012814D1E06958B102
:105050002046FFF775FEEFF3108072B6A16909B123
:10506000C96AA16280F31088F86AA84203D0384662
:105070002946FFF7B9FE304601F064F92CE700BF7E
:105080009C01002470B5DB4DEFF3108172B604462D
:105090000126286801302860D4F8D80058B186600D
:1050A00081F31088FFF704FFEFF3108172B6D4F894
:1050B000D8000028F2D128680138286081F31088D0
:1050C00070BD00BFB801002410B5EFF3108272B6B6
:1050D000C94C836EA3422DD1D0F8F8308B4229D130
:1050E000C16E39B30B682F4CA34223D1CC6A0CB3E9
:1050F00000238366013CCC6206D0D0E91C345C6797
:1051000023678C6A844200D18B62036B052B11D11B
:1051100009690B230029F34908BF0A23C0F884302A
:105120000B6801330B6082F3108801F00BF9EFF389
:10513000108272B682F3108810BD00BFB80100243F
:10514000F8B50F4644211D4616460446FBF7DCFB26
:10515000B0000699C4E90855A561C4E90176B1FB20
:10516000F0F06061E0600F49704305EB8000E061A2
:10517000EFF3108072B621602D490A6832B12D4BD1
:105180001B685D6B5C6305F1300602E0294E234627
:10519000254634600132C4E90C350A6080F310887A
:1051A0000020F8BD554555512DE9F041204BEFF356
:1051B000108272B6002101601C68013C1C6007D09F
:1051C000D0E90C134B6319631A4B1B68834201D15E
:1051D000184B1960C34CD0E90A154FF00008C0E91C
:1051E0000A88012720680130206082F3108895B179
:1051F000EFF3108072B6C1F88470C1F8688022683D
:10520000013222600E6F80F31088084601F09AF890
:10521000013D3146EBE7EFF3108072B621680139AA
:10522000216080F3108801F035F80020BDE8F0819E
:105230007801002474010024B8010024F8B5EFF3CC
:10524000108172B60024026982B1C56AC26883699E
:10525000C0E90442C0E9083345B10022846AC26251
:105260008262A04802680132026000E0002581F3FA
:105270001088F5B100279B4E8DB184B1EFF31080FB
:1052800072B6C4F88470A766316801313160246F4A
:1052900080F31088606F01F055F8013DECE7EFF303
:1052A000108072B631680139316080F3108800F0E7
:1052B000F1FF0020F8BD00BFB8010024F8B5EFF3FE
:1052C000108C72B604464569C06A4DB188B1421E61
:1052D000A06A30D0D0E91C56A5626E6735672CE015
:1052E000002A4BD0E84D2B68002B4CD08CF3108853
:1052F00046E0A269206A904208BFE0696A1E6261C6
:105300002569A26801352561022A0D68A0EB820695
:105310002662356008D3C2F10102043122B120C9EE
:1053200040F822500132F9E7A16B8CF3108819B3D1
:105330002046884720E00025A562C76FE2620A6820
:105340000025A66B85663A60A268022A07D3013A57
:10535000043704311AB108C9013A08C7FAE7CA4943
:10536000C0F884500A6801320A608CF3108800F09B
:10537000E9FF36B12046B047002502E08CF31088E3
:105380000B252846F8BDC14B1E680123C6E91F1333
:10539000BF49C6E91A14D6F8F8100131C6F8F8105A
:1053A00004F1280130B10B6833675F6F77675E6780
:1053B0003E6703E00E60366706F174010E6005215A
:1053C00031630130F264E0620121B1632868013089
:1053D0002860A76B8CF31088304601F0C9F8D6F826
:1053E0008450002FCDD0002DCBD12046B847D6F821
:1053F0008450C6E7B8010024C9500008B0B5EFF3E7
:10540000108472B609B145680D600AB10169116076
:1054100004990BB142691A60059A09B1836A0B605D
:1054200006990AB1C36A136009B1006B086084F37E
:1054300010880020B0BDFF207047FF20704700009B
:10544000F8B5EFF3108172B6D0F82CE0BEF1010F81
:1054500002D881F3108843E0826ABEF1020F166F12
:1054600007D1D26AF36A934238BF866281F310880B
:1054700036E0DFF8C0CE1446DCF800300133CCF85B
:105480000030D56AF36A81F31088EFF3108172B6A9
:10549000876ABC4201D0C56A07E0AB4238BF3246DA
:1054A000C56AAE4501D1374602E03A463C46AE46B3
:1054B0003E6FA642E5D1DCF80030013BCCF800306D
:1054C000A24209D0D2E91C3582625D672B6714675E
:1054D000636F536762671A6781F3108800F0DAFE22
:1054E0000020F8BDB8010024F8B5EFF3108C72B6B7
:1054F0000469C56A9CB1DDB1826AD2F88030012BA3
:1055000031D1D36F1C680C608468022C38D3013C05
:105510001E1D0431A4B308CE013C08C1FAE7002ADD
:1055200060D0E34E3368002B60D08CF310885BE0D2
:10553000026A8368022B20CA0D6006D35D1E043107
:105540001DB108CA013D08C1FAE7C1698A4208BF16
:1055500082690262611E0161002441690131416179
:105560008CF3108876E0076A8468022C08CF0B6001
:105570000ED3661E04315EB108CF013E08C1FAE7C2
:10558000691E48D0D2E91C3483625C67236744E01B
:10559000DFF8A0EDC669B74208BF8769DEF80030C2
:1055A0000133CEF800300762DEF80030013BCEF860
:1055B0000030D36F476A022C196802C706D3013C3A
:1055C00004331CB102CB013C02C7FAE7B74208BF63
:1055D000876947626B1E2CD0D2E91C1481624C672C
:1055E000216728E08CF310880A2433E0744B1C6890
:1055F0000023C4E91F137349C4E91A10D4F8F81042
:105600000131C4F8F8103DB3816A216751F8743F45
:1056100063671C6724E000238362C162DC480024C6
:10562000C2F8844094660168013101608CF31088EF
:105630000DE0002181620024C2F884409466C362B8
:10564000DEF800000130CEF800008CF31088104620
:1056500000F078FE2046F8BD8462246704F17401EE
:105660000C600121A163E26405212163691CC16210
:105670003068013030608CF31088204600F078FFED
:10568000D4F88440E6E700BFB80100249C01002460
:10569000C9500008F8B5EFF3108372B604464569A7
:1056A000C06A4DB188B1421EA06A2CD0D0E91C5608
:1056B000A5626E67356728E0002A47D0D64D2E6870
:1056C000002E48D083F3108842E0681E256960618F
:1056D000A2680135606A25610D68022A20C006D3E0
:1056E000013A04311AB120C9013A20C0FAE7E16950
:1056F000884208BFA069A16B606283F3108819B368
:105700002046884720E00025A562C66FE2620A684D
:10571000002585663260A268022A07D3013A043662
:1057200004311AB180C9013A80C6FAE7F549C0F8D8
:1057300084500A6801320A60A66B83F3108800F077
:1057400001FE36B12046B047002502E083F3108801
:105750000B252846F8BDB14E00273668C6E91F174D
:105760001849C6E91A14D6F8F8100131C6F8F8102D
:1057700030B1A16A316751F8747F77673E6703E003
:10578000A662366706F174010E60052131630130AF
:10579000F264E0620121B163286801302860A76BE0
:1057A00083F31088304600F0E3FED6F88450002FD3
:1057B000CFD0002DCDD12046B847D6F88450C8E7C9
:1057C0009C010024C9500008EFF3108272B6816377
:1057D000002082F31088704770B5EFF3108272B624
:1057E0000446006940B1411EE06811D0D0E91C3583
:1057F000E3605D672B670DE0A06888421DD2013031
:10580000E169A06082F31088A9B12046884712E0C0
:105810000023E3602161D4490025C0F884508566E7
:105820000B6801330B60E66982F3108800F08AFD93
:1058300036B12046B047002502E082F310882125CA
:10584000284670BD10B5EFF3108272B6744C836EAB
:10585000A34229D1D0F8F8308B4225D1C16E19B3BB
:105860000B68264CA3421FD10C69ECB10023836660
:10587000013C0C6106D0D0E91C345C672367CC681E
:10588000844200D1CB60016B06290DD10D21C0F8F7
:105890008410B5490B6801330B6082F3108800F067
:1058A00051FDEFF3108272B682F3108810BD00BF75
:1058B000B801002470B50E46282115460446FBF7B2
:1058C00023F80E49C4E90165EFF3108072B6216038
:1058D0002D490A6832B12D4B1B689D699C6105F109
:1058E000140602E0294E2346254634600132C4E9FD
:1058F00005350A6080F31088002070BD414D455386
:105900002DE9F041204BEFF3108272B600210160C7
:105910001C68013C1C6007D0D0E905138B615961FC
:105920001A4B1B68834201D1184B1960D94CD0E93E
:1059300003154FF00008C0E90388012720680130F3
:10594000206082F3108895B1EFF3108072B6C1F831
:105950008470C1F868802268013222600E6F80F383
:105960001088084600F0EEFC013D3146EBE7EFF30E
:10597000108072B621680139216080F3108800F030
:1059800089FC0020BDE8F081700100246C01002436
:10599000B8010024F8B5EFF3108272B683682BB11A
:1059A000591E8160002082F31088F8BD29B1B94BDF
:1059B0001C6834B182F3108801E082F310880D2056
:1059C000F8BDD34C164D2468C4E91A50D4F8F850E9
:1059D0000135C4F8F850056935B1C668266756F830
:1059E000747F67673C6703E0C460246704F1740652
:1059F000E1640121A163346006212163691C016116
:105A000018680130186082F31088204600F0B0FD5D
:105A1000D4F88400F8BD00BFB80100249C01002424
:105A200045580008B0B5EFF3108472B609B1456867
:105A30000D600AB18168116004990BB1C2681A60E7
:105A4000059A09B103690B600AB14069106084F3DB
:105A500010880020B0BDFF207047FF207047000075
:105A6000F8B5EFF3108172B6D0F810E0BEF1010F77
:105A700002D881F3108843E0C268BEF1020F166FAE
:105A800007D1D26AF36A934238BFC66081F31088A7
:105A900036E0DFF884CE1446DCF800300133CCF871
:105AA0000030D56AF36A81F31088EFF3108172B683
:105AB000C768BC4201D0056907E0AB4238BF324637
:105AC0000569AE4501D1374602E03A463C46AE464E
:105AD0003E6FA642E5D1DCF80030013BCCF8003047
