:020000040800F2
:1000000038FD0424AD020008B50200085DDA0108DD
:10001000D5030008D5030008D50300080000000040
:10002000000000000000000000000000550500086E
:10003000C1020008000000009B0400085F030008E4
:10004000C7020008C7020008C7020008C70200086C
:10005000C7020008C7020008C7020008C70200085C
:10006000C7020008C7020008C7020008C70200084C
:10007000C7020008C7020008C7020008C70200083C
:10008000C7020008C7020008C7020008C70200082C
:10009000C7020008C7020008C7020008C70200081C
:1000A000C7020008C7020008C7020008C70200080C
:1000B000115D0008C7020008C7020008C702000857
:1000C000C7020008C7020008C7020008C7020008EC
:1000D000C7020008F1720008C70200080173000897
:1000E000C7020008C702000800000000C70200089D
:1000F000C7020008C7020008C7020008C7020008BC
:10010000C7020008C7020008C7020008C7020008AB
:10011000C7020008C7020008C7020008C70200089B
:10012000C7020008C7020008C7020008C70200088B
:10013000C7020008C7020008C7020008C70200087B
:1001400000000000000000000000000000000000AF
:10015000C7020008C7020008C7020008C70200085B
:10016000C7020008C7020008C7020008C70200084B
:10017000C7020008C7020008C7020008000000000C
:10018000C7020008C7020008C7020008C70200082B
:10019000C7020008C7020008C7020008C70200081B
:1001A000C7020008C7020008C7020008C70200080B
:1001B000C7020008C7020008C7020008C7020008FB
:1001C000C7020008C7020008C7020008C7020008EB
:1001D000C7020008C7020008C7020008C7020008DB
:1001E000C7020008C7020008C7020008C7020008CB
:1001F000C7020008C7020008C7020008C7020008BB
:10020000C7020008C7020008C7020008C7020008AA
:10021000C7020008C7020008C7020008C70200089A
:10022000C7020008C7020008C7020008000000005B
:10023000C7020008C702000800000000C70200084B
:10024000C7020008C7020008C7020008C70200086A
:10025000C7020008C7020008C7020008C70200085A
:10026000C7020008C7020008C7020008C70200084A
:10027000C7020008C7020008C7020008000000000B
:10028000C7020008C7020008C702000800000000FB
:1002900000000000C7020008DFF80CD000F02EFDBF
:1002A0000048004761D7010838FD0424064880470C
:1002B00006480047FEE7FEE7FEE7FEE7FEE7FEE74B
:1002C000FEE7FEE7FEE7FEE7895B0008990200080B
:1002D0001C4B002438FD042400000008E04B0024DF
:1002E00000000008001000E07F1A06000000FF4038
:1002F00072B65FF824005FF8241001F10401016078
:100300004FF0E0205FF83010C0F8081D5FF83400AF
:100310005FF83410096801605FF83800016841F047
:10032000010101604FF0E0205FF8441041614FF09F
:10033000070101614FF00001C0F8181D4FF07F4127
:10034000C0F81C1D5FF85C10C0F8201D7047FFF757
:10035000FEBFFFF7FEBF01B5BDE80140704701B524
:1003600000F0FEF9BDE801407047FFF7FEBFFFF760
:10037000FEBF0000000000000000000000000000C0
:10038000EFF3108180F310880846704700000000EA
:10039000000000000000000000000000000000005D
:1003A0004FF00000C54A1060EFF3148020F0040005
:1003B00080F31488C2484FF4E021016062B64FF028
:1003C00080504FF0E021C1F8040DBFF34F8FBFF311
:1003D0006F8FFEE772B6DFF8ECC2BB480168CCF85D
:1003E0000010B7480168CCF80810B8480168CCF88C
:1003F0000C10B7480168CCF81010B6480168CCF86A
:100400001410EFF31480CCF81800EFF30981CCF846
:100410001C100868CCF820004868CCF82400CCF800
:100420002820CCF82C30CCF83040CCF83450CCF824
:100430003860CCF83C70CCF84080CCF84490CCF8D4
:1004400048A0CCF84CB00869CCF850004869CCF80A
:1004500054008869CCF80400C869CCF85800EFF360
:10046000148020F0010080F314889848017801700E
:100470009948016821F00101016011F089FF4FF0F6
:1004800000019648016096484FF080510160BFF32B
:100490004F8F62B66FF0020E70479248924A4FF04B
:1004A0000003016891B10360EFF3098C2CE9F00FB0
:1004B0001EF0100F01D12CED108A8C4C4CF804ED7D
:1004C0002568C1F808C00DB18D61236072B611684E
:1004D00051B972B6116809B962B6FAE74FF0006710
:1004E0004FF0E028C8F8047D016062B64F68804C88
:1004F0008D6907F101074F602560D1F808C0EFF35F
:100500001485D1F8984025F0010544EA050484F3E8
:1005100014887848D1F8900080B1416E71B1764965
:1005200000F16400B0E8FC0381E8FC0390E8FC0300
:1005300081E8FC036F484FF0050101605CF804EBB3
:100540001EF0100F01D1BCEC108ABCE8F00F8CF348
:1005500009887047EFF30980816911F8022C012A9C
:1005600043D1664A914218BF7047436964490A689B
:100570004FF00001C2F89810C2F8A030D2F89000F5
:10058000C06810F0020F29D0D2F8A800D2F8A41049
:10059000D2F8AC30D16010615361EFF309831EF0E3
:1005A000100F04BF43F001034EF0100EC2F8B0303C
:1005B00023F0010303F1200333E9060020E90600DC
:1005C00033E9060020E9060033E9060020E90600C9
:1005D00033E9060020E9060080F30988EFF3148070
:1005E00020F0010080F314887047464A914218BFFA
:1005F000704745490A68D2F89C10C2F89810D2F8A2
:100600009000C06810F0020F38D0D2F8B400D2F8D1
:10061000B810D2F8BC30D060116153612E4B1B680A
:1006200013F0010F0DD039490968D2F8A4008142B6
:1006300007D3D2F8A800884203D323F00103264948
:100640000B60D2F8B000EFF3098310F0010F1ABF6E
:100650002EF0100E20F001004EF0100E06CB06C05A
:1006600006CB06C006CB06C006CB06C0A0F1200014
:1006700080F3098826490A68D2F89C10EFF31480A9
:1006800040EA010080F31488704700BF00BF00BF3C
:1006900000BF00BF00BF00BF00BF00BF00BF00BF62
:1006A00001DF11F031FB1B4A1368D3F8A0E002DF31
:1006B000704700BF00BF00BF00BF7047544B00240D
:1006C00024ED00E0C4510024444B002428ED00E058
:1006D00034ED00E038ED00E034EF00E0444B00245E
:1006E00004ED00E0444B0024484B00247C510024DE
:1006F0007C51002494ED00E09CED00E0A20600088F
:10070000444B0024B0060008444B002438EF00E0BE
:10071000444B0024444B0024000000000000000073
:10072000026922F00702A2F144026FF00203136093
:100730004FF0000353609360D36013615361936182
:10074000D361136253629362D362136353634FF0B6
:10075000FF339363D1634FF08073136482607047FB
:100760002249086800F101000860214B1A683AB17B
:10077000A2F101021A601AB91E4B4FF00100186075
:100780001D490868026822B11C4B4FF001021A6033
:1007900008E000F104001A4B1A68904201D1194B8D
:1007A00018680860184B1A6812B918490868D0B15F
:1007B0002DE901401649086808B10DF045FE154BBA
:1007C0001A6872B10DF04CFA1348016849B9134820
:1007D0000168134A136813484FF08052994200D0C1
:1007E0000260BDE80140BFF34F8F7047904C00247A
:1007F0007C510024F44B0024EC4B0024F04B0024EB
:100800007C4C0024804C0024F44B0024F04B00244A
:10081000F04B0024F44B0024544B0024444B0024A0
:10082000484B002404ED00E0000000000000000040
:10083000026922F00702A2F144026FF00203136082
:100840004FF0000353609360D36013615361D36131
:1008500013625062836893629B6893614FF0000358
:10086000D362136353634FF0FF339363D1634FF04D
:1008700080731364826070472DE9F05F05460020A5
:1008800092469B4688460646814640241BE0284601
:1008900041464746224600F069F853465A46C01A78
:1008A000914110D311461846224600F050F82D1AF7
:1008B00067EB01084F4622460120002100F047F86F
:1008C00017EB00094E41201EA4F10104DFDC48466D
:1008D00031462A464346BDE8F09F40EA01039B07A4
:1008E00003D009E008C9121F08C0042AFAD203E0A5
:1008F00011F8013B00F8013B521EF9D27047D2B209
:1009000001E000F8012B491EFBD270470022F6E7F8
:1009100010B513460A4604461946FFF7F0FF204675
:1009200010BD30B50B46014600202022012409E00D
:1009300021FA02F59D4205D303FA02F5491B04FA98
:1009400002F52844151EA2F10102F1DC30BD202A77
:1009500004DB203A00FA02F1002070479140C2F116
:10096000200320FA03F3194390407047202A04DB48
:10097000203A21FA02F00021704721FA02F3D04018
:10098000C2F1200291400843194670472DE9FE4FFD
:10099000804681EA0300C00F0C46009021F0004120
:1009A00023F00045B8EB0200A94105D2404621469C
:1009B00090461C460B46024623F00040104347D0A9
:1009C000270DC7F30A00C3F30A510290401A0190A1
:1009D00040286BDAC3F3130040F4801B0098924662
:1009E00020B10023D2EB030A63EB0B0B01985946AD
:1009F000C0F140025046FFF7AAFF06460D4650469A
:100A00005946019A00F08CF910EB0800614100246E
:100A100087EA115284EAE7731A4340D0009A62B31E
:100A2000019A012A4FEA075215DC001B61EB020113
:100A30004FF0004202EA0752CDE90042001C41F5A6
:100A4000801132462B4600F08CF903B0BDE8F08FE0
:100A500040462146F9E7001B61EB0201001C41F50D
:100A6000801300185B412018A2F5001747EB030123
:100A700040EAD570B6196D4111E06D084FEA3606AF
:100A800045EAC0754FEA0752001B61EB0201001CEA
:100A900041F5801149084FEA3000001951413246B2
:100AA0002B4603B0BDE8F04F00F04CB9009801228E
:100AB00040000023D0EB020263EBE0730098214674
:100AC0004FEAE074B8EB000061EB0401E9E783F062
:100AD00000435BE781F0004158E72DE9FE4F81EAD2
:100AE000030404F0004421F0004100944FF0000B97
:100AF00023F0004350EA01045ED052EA03045BD0C5
:100B0000C3F30A54C1F30A552C44A4F2F3340194FC
:100B1000A0FB0254C1F3130141F48011C3F313038A
:100B200043F4801301FB024400FB034E840A970A3E
:100B300044EA815447EA8357A4FB076802958D0A6B
:100B400005FB07854FEA932C04FB0C542705029DF7
:100B50004FEA065847EA1637B5EB08056EEB070C67
:100B6000870E920E47EA811742EA8312A7FB020121
:100B7000B6EB0B0164EB00042B0D43EA0C335E185B
:100B800044EB1C50DA465146E7FB0201C5F313045F
:100B90004FEA0B3343EA14534FEA0432019C43EA11
:100BA0000603A4F10C040294009CCDE900B400F00B
:100BB000D8F803B0BDE8F08F00200146F9E72DE931
:100BC000F04D81EA030404F0004B21F00045144687
:100BD0004FF0000A23F0004150EA050220D054EA09
:100BE00001021DD0C5F30A570246C5F31303C1F332
:100BF0001300C1F30A5640F4801543F48013A7EBA9
:100C00000608101BD64608F2FD3873EB050002D328
:100C100008F1010801E092185B41B8F1000F03DA16
:100C200000200146BDE8F08D00204FF480110646FB
:100C300084460EE0171B73EB050705D3121B63EB0D
:100C4000050306434CEA010C49084FEA30009218AC
:100C50005B4150EA0107EDD152EA030012D082EA6B
:100C6000040083EA0501084305D0101BAB4106D2FE
:100C70000122002306E000224FF0004302E06FF063
:100C8000010253101AEB06004CEB085110EB0A005E
:100C900041EB0B01BDE8F04D00F054B8C1F30A522E
:100CA000C1F3130140F2FF3341F480119A4202DA9A
:100CB00000200146704740F233439A42A2F2334289
:100CC00002DC5242FFF752BEFFF741BE30B5041EB0
:100CD00071F1000404DB4FF00044404264EB010179
:100CE000141E73F1000405DB1C464FF00043524212
:100CF00063EB0403994208BF904230BD064C074D98
:100D000006E0E06840F0010394E8070098471034DB
:100D1000AC42F6D3FFF7C4FA20EA010840EA010822
:100D2000202A06DBCB17203A41FA02F043EAE073AF
:100D300006E041FA02F3D040C2F12002914008439C
:100D40001946704710B5141E73F1000408DA401CF0
:100D500041F1000192185B411A4301D120F00100DA
:100D600010BD2DE9F04D92469B4611B1B1FA81F2CA
:100D700002E0B0FA80F220329046FFF7E8FD044628
:100D80000F4640EA0A0041EA0B0153465A4608431F
:100D900013D0114653EA010019D0C8F14002504661
:100DA000FFF7E4FD05460E46504659464246FFF71A
:100DB000CEFD084305D0012004E020463946BDE8B9
:100DC000F08D0020054346EAE0762C4337430A982D
:100DD0006305E40AA0EB08000022FD0A44EA475438
:100DE0000A3002D500200146E9E7010510196941E2
:100DF000DDE9084500196941BDE8F04DA2E70000B2
:100E000080B540F22040C2F200404EF23151C0F6AF
:100E10000101012234230EF047FD80BD00000000D7
:100E200080B582B00190FFE702201BF0E5FF64204F
:100E30000BF0F6FEF8E7000080B58CB06946E820BC
:100E40000A9088610120079048610220089008619B
:100E50000520C86088604FF480500B90486041F2D4
:100E60004050C2F20040086042F24050C2F20040DE
:100E70004EF22551C0F6010140F61972C0F600028B
:100E8000002309930FF0B8FBDDF828C0079A099BEF
:100E90000B986946C1F818C04A610B610622CA6006
:100EA0008A60486043F21070C2F20040086044F269
:100EB0001070C2F200404EF20851C0F6010140F637
:100EC0006172C0F600020FF097FBDDF81CC0089AB3
:100ED000099BDDF828E00B986946C1F818E0C1F8D5
:100EE00014C00A610722CA608A60486040F2584014
:100EF000C2F20040086041F25840C2F200404EF297
:100F00001851C0F6010140F62162C0F600020FF050
:100F100073FB0CB080BD000080B582B00190FFE78C
:100F20004FF47A700BF07CFEFAE70000000000003E
:100F300080B58CB00B900020019003F0ADF91BF050
:100F400013FD1CF019FCFFF777FFFFF759FFFFE7D0
:100F500004F0D2FC01200BF063FEF9E70000000072
:100F600080B586B00590FFE71BF0CEFC8DF813002E
:100F70009DF8130050B1FFE79DF81300012803D13D
:100F8000FFE700F0FDF800E0FFE7FFE714200BF0BB
:100F900047FEE9E70000000083B080B5B7B03B939F
:100FA0003A923991369039A80290369A029B0DF107
:100FB0000F000090C9211CF06BFD40F22040C2F2EE
:100FC000004001904FF0FF310EF06AFD00994EF2A3
:100FD0003F50C0F601001CF04BFD01980EF028FEBA
:100FE00037B0BDE8804003B070470000000000004B
:100FF00083B04EF61450CEF2000000688003002843
:1010000001D5FFE71AE0BFF34F8FBFF36F8F4EF6A6
:101010005071CEF2000100200860BFF34F8FBFF384
:101020006F8F4EF61451CEF20001086840F4003084
:101030000860BFF34F8FBFF36F8FFFE74EF614507A
:10104000CEF200000068C003002801D5FFE73CE0B5
:101050004EF68451CEF2000100200860BFF34F8F9E
:101060004EF68050CEF20000006802900298C0F365
:101070004E300190FFE70298C0F3C9000090FFE7EF
:1010800001990098800761F34D104EF66071CEF221
:10109000000108600098411E00910028F0D1FFE790
:1010A0000198411E01910028E5D1FFE7BFF34F8F62
:1010B0004EF61451CEF20001086840F4803008600A
:1010C000BFF34F8FBFF36F8FFFE703B07047000090
:1010D00080B582B08DF803009DF8030030B9FFE7BA
:1010E00046F2A420C2F20040019045E09DF80300C2
:1010F000012803D1FFE7002001903DE09DF80300A7
:10110000022806D1FFE746F2D020C2F2004001904B
:1011100032E09DF80300032803D1FFE7002001908F
:101120002AE09DF80300042803D1FFE70020019086
:1011300022E09DF80300052803D1FFE7002001907D
:101140001AE09DF80300062803D1FFE70020019074
:1011500012E09DF80300072803D1FFE7002001906B
:101160000AE04EF6E600C0F601004FF48E7100F082
:1011700057F800200190FFE7019802B080BD000001
:1011800080B584B043F22860C2F2004003904EF272
:101190002440C0F601000290FFF7FEFE0298FFF720
:1011A000FBFE4EF2CF40C0F60100FFF7F5FE4EF217
:1011B0006640C0F60100FFF7EFFEFFE7039850B36B
:1011C000FFE7DDF80CC0DCF82C10DCF80830DCF8A8
:1011D0001000DCF81420DCF828E0C31ADCF8DCC0CE
:1011E000A0EB0C00EC46CCF804E0CCF800004EF28A
:1011F000A040C0F60100FFF7CFFE0398D0F88800AA
:101200000390039843F22861C2F20041884201D161
:10121000FFE700E0D2E704B080BD0000000000005E
:1012200082B001900091009810B9FFE702B07047BA
:10123000FFE7FEE70000000080B584B00390029154
:10124000019200930098B0F5804F1DD1FFE70398FD
:10125000019950F821000021CCF6F0710840029B62
:101260001968D3F804E0D3F808C0DA6841EA0E112F
:1012700041EA0C219B69194341EA02410843039961
:10128000019A41F8220006E00399019A6FF070403C
:1012900041F82200FFE7002004B080BD00000000FC
:1012A00080B586B00590049105990498026851F8BC
:1012B000220020F0010041F82200049880680828EC
:1012C00003D1FFE74020039002E000200390FFE7F6
:1012D000039804990091D1F804E0D1F808C0CB68D4
:1012E0000A6940EA0E0040EA0C00184310434A69BC
:1012F00010438A691043CA6910430A6A10434A6A54
:1013000010438A6A1043C96A084302900498016B2B
:101310000298084302900498416B02980843029097
:101320000498816B0298084302904FF67F30C0F218
:1013300008000190019840F480100190019840F459
:1013400000100190019840F4E02001900598049964
:10135000096850F8210001998843029908430599CA
:10136000049A126841F822000498006BB0F5801FBF
:101370000ED1FFE70498006850B1FFE705980068B8
:1013800020F480100499096B084305990860FFE771
:101390000498006838B1FFE70498426B0599086823
:1013A00010430860FFE7002006B080BD0000000089
:1013B00080B584B00390029101920398019900EBEB
:1013C0008100406800F04040029A1168D2F804E0C1
:1013D000D2F808C0D36841EA0E1141EA0C2141EA73
:1013E0000341D2F810C00023CFF6F07303EB0C5387
:1013F00019435369FE3341EA03619269114308437B
:101400000399019A01EB8201486003980068C002C9
:10141000002818D5FFE70398406820F4700000907A
:10142000029801690020CFF6F07000EB015100989E
:10143000084300900398406820F470000099084326
:1014400003994860FFE7002004B080BD0000000061
:1014500040F22041C5F60001086840F00100086034
:10146000704700000000000090B00F900E91002027
:101470000D908020C5F600000A90FFE70E980068E6
:101480000D99C840002800F0D081FFE70E98006851
:101490000D9A0121914008400C900C98002800F012
:1014A000C081FFE70E98406801280FD0FFE70E9833
:1014B000406802280AD0FFE70E984068112805D03E
:1014C000FFE70E98406812282FD1FFE70F98806839
:1014D0000B900D984100032000FA01F10B9888430E
:1014E0000B900E98C0680D99490000FA01F10B9815
:1014F00008430B900B980F9988600F9840680B90E9
:101500000D99012000FA01F10B9888430B900E9879
:101510004068C0F300100D9900FA01F10B980843E0
:101520000B900B980F994860FFE70F98C0680B90DD
:101530000D984100032000FA01F10B9888430B90AD
:101540000E9880680D99490000FA01F10B98084344
:101550000B900B980F99C8600E984068022805D030
:10156000FFE70E984068122826D1FFE70F980D99E3
:101570006FF0030202EA51010844006A0B900D98D3
:1015800000F0070081000F2000FA01F10B9888435A
:101590000B900E9800690D9901F00701890000FA7F
:1015A00001F10B9808430B900B980F990D9B02EAE1
:1015B000530211440862FFE70F9800680B900D98E2
:1015C0004100032000FA01F10B9888430B900E981C
:1015D000406800F003000D99490000FA01F10B98F2
:1015E00008430B900B980F9908600E98C079C006BD
:1015F000002840F11581FFE7FFE744F2F440C5F60B
:101600000200016841F002010160006800F0020080
:1016100009900998FFE70D9820F0030040F2084177
:10162000C5F6000140580B900D9800F003008100B2
:101630000F2000FA01F10B9888430B900F980021BE
:10164000C5F60201884203D1FFE7002008907AE046
:101650000F9840F20041C5F60201884203D1FFE72E
:10166000012007906CE00F9840F60001C5F60201DA
:10167000884203D1FFE7022006905EE00F9840F613
:101680000041C5F60201884203D1FFE7032005901F
:1016900050E00F9841F20001C5F60201884203D1E3
:1016A000FFE70420049042E00F9841F20041C5F6A4
:1016B0000201884203D1FFE70520039034E00F9830
:1016C00041F60001C5F60201884203D1FFE706207A
:1016D000029026E00F9841F60041C5F602018842CB
:1016E00003D1FFE70720019018E00F9842F20001B4
:1016F000C5F60201884203D1FFE7082000900AE006
:101700000F9942F20042C5F602020A20914208BF38
:1017100009200090FFE700980190FFE701980290F0
:10172000FFE702980390FFE703980490FFE704980F
:101730000590FFE705980690FFE706980790FFE7FA
:1017400007980890FFE708980D9901F003018900B8
:1017500000FA01F10B9808430B900B980D9921F0BA
:10176000030140F20842C5F6000288500A9800685A
:101770000B900C990B9888430B900E988079C007BA
:1017800028B1FFE70C990B9808430B90FFE70B98E3
:101790000A9908600A9840680B900C990B98884346
:1017A0000B900E9880798007002805D5FFE70C99EB
:1017B0000B9808430B90FFE70B980A9948604FF08D
:1017C000B04000680B900C990B9888430B900E98D2
:1017D0008079C006002805D5FFE70C990B980843CF
:1017E0000B90FFE70B984FF0B04108600420C5F65E
:1017F000000000680B900C990B9888430B900E9892
:1018000080798006002805D5FFE70C990B980843DE
:101810000B90FFE70B980421C5F600010860FFE775
:10182000FFE70D9801300D9028E610B070470000DA
:1018300082B00190ADF802108DF801209DF80100F2
:1018400028B1FFE7BDF802000199886105E0BDF805
:101850000200000401998861FFE702B070470000B0
:1018600041F20000C5F600400068000C704700001F
:1018700080B582B040F20C00C2F20040006820B98E
:10188000FFE70CF0EDFB019024E040F20400C2F20F
:1018900000400068800B0090FFE7009888B1FFE7E8
:1018A00000BF00BF00BF00BF00BF00BF00BF00BF40
:1018B00000BF00BF00BF00BFFFE7009801380090E5
:1018C000EBE744F2F871C2F20041086801300860A9
:1018D0000190FFE7019802B080BD00000000000009
:1018E00080B582B0032000F0E7F801F0FDFD44F27E
:1018F0001842C5F602021168C1F303234EF2BA3151
:10190000C0F60101CB5C03F01F03D84000900098A3
:10191000126802F00F02895C01F01F01C84040F21A
:101920000801C2F200410860009840F20401C2F2CE
:10193000004108600F2000F013F820B1FFE70120FC
:101940008DF8070005E000F08FF800208DF8070003
:10195000FFE79DF8070002B080BD00000000000016
:1019600081B00090002001B070470000000000002E
:1019700080B582B00190019840784EF69851CEF231
:10198000000108600198007898B3FFE7019840686B
:101990004EF69C51CEF200010860DDF804C0CDF88F
:1019A00000C09CF80C0000079CF80B1040EA016096
:1019B0009CF800109CF808209CF809309CF80AE07C
:1019C00040EACE409CF80DE040EA8E409CF80EE0E4
:1019D00040EA4E409CF80FC040EA0C4040EA032029
:1019E00040EA420008434EF6A051CEF200010860E2
:1019F0000BE04EF69C51CEF20001002008604EF63E
:101A0000A051CEF200010860FFE702B080BD0000E7
:101A1000BFF35F8F4EF62451CEF20001086820F428
:101A2000803008604EF69451CEF20001002008602C
:101A3000704700000000000081B00090009840F066
:101A400001004EF69451CEF2000108604EF624518A
:101A5000CEF20001086840F480300860BFF34F8F79
:101A6000BFF36F8F01B070477047000000000000A7
:101A700080B582B0ADF80600BDF9060005F0E0FDC6
:101A800002B080BD0000000080B586B0ADF8160041
:101A90000491039205F0ECFD0290BDF9160001904F
:101AA00002980499039A03F0E3FC0146019805F0BB
:101AB000E7FD06B080BD000080B582B001900198BE
:101AC00005F002FE02B080BD80B501F0B9FC44F221
:101AD0002041C5F602010968C1F302124EF2BA3183
:101AE000C0F60101895C01F01F01C84080BD000003
:101AF00088B0079044F22840C5F60200016801F062
:101B0000030106910068C0F30530059044F22C40B3
:101B1000C5F602000068C0F300100490049844F277
:101B20003C41C5F60201096889B2C908484300EE84
:101B3000100AB8EE400A8DED020A0598002800F060
:101B40001B81FFE70698009048B1FFE70098012845
:101B500069D0FFE70098022800F08980ABE044F2EA
:101B60000040C5F60200006800F020010020B0EB44
:101B7000511F33D0FFE744F20040C5F60200006871
:101B8000C0F3C10149F20000C0F2D030C840039058
:101B90009DED030AB8EE400A9DED051AB8EE411A14
:101BA00080EE010A44F23840C5F6020000686FF387
:101BB0005F2001EE100AB8EE411A9DED022A9FED5A
:101BC000743A82EE032A31EE021AB7EE002A31EEA1
:101BD000021A20EE010A8DED010A23E09DED050AAF
:101BE000B8EE401A9FED6C0A80EE010A44F23840CC
:101BF000C5F6020000686FF35F2001EE100AB8EE30
:101C0000411A9DED022A9FED623A82EE032A31EEDF
:101C1000021AB7EE002A31EE021A20EE010A8DED0B
:101C2000010AFFE76BE09DED050AB8EE401A9FED53
:101C3000590A80EE010A44F23840C5F602000068F5
:101C40006FF35F2001EE100AB8EE411A9DED022AF3
:101C50009FED4F3A82EE032A31EE021AB7EE002AC8
:101C600031EE021A20EE010A8DED010A47E09DEDEA
:101C7000050AB8EE401A9FED450A80EE010A44F2CB
:101C80003840C5F6020000686FF35F2001EE100ACD
:101C9000B8EE411A9DED022A9FED3D3A82EE032AED
:101CA00031EE021AB7EE002A31EE021A20EE010AD6
:101CB0008DED010A23E09DED050AB8EE401A9FED77
:101CC000350A80EE010A44F23840C5F60200006889
:101CD0006FF35F2001EE100AB8EE411A9DED022A63
:101CE0009FED2B3A82EE032A31EE021AB7EE002A5C
:101CF00031EE021A20EE010A8DED010AFFE79DED9B
:101D0000010A44F23840C5F60200016889B2490A66
:101D100001EE101AB8EE411AB7EE002A31EE021A9F
:101D200080EE010A0799BCEEC00A81ED000A9DED24
:101D3000010A0168C1F3064101EE101AB8EE411A1A
:101D400031EE021A80EE010A0799BCEEC00A81ED5D
:101D5000010A9DED010A0068C0F3066001EE100A59
:101D6000B8EE411A31EE021A80EE010A0798BCEE75
:101D7000C00A80ED020A07E0079900200860079971
:101D8000486007998860FFE708B0704720BCBE4BE9
:101D9000000000460024744A0024744C0000000037
:101DA00088B0079044F22840C5F60200016801F0AF
:101DB000030106910068C0F30550059044F22C40E1
:101DC000C5F602000068C0F300200490049844F2B5
:101DD0004441C5F60201096889B2C908484300EECA
:101DE000100AB8EE400A8DED020A0598002800F0AE
:101DF0001B81FFE70698009048B1FFE70098012893
:101E000069D0FFE70098022800F08980ABE044F237
:101E10000040C5F60200006800F020010020B0EB91
:101E2000511F33D0FFE744F20040C5F602000068BE
:101E3000C0F3C10149F20000C0F2D030C8400390A5
:101E40009DED030AB8EE400A9DED051AB8EE411A61
:101E500080EE010A44F24040C5F6020000686FF3CC
:101E60005F2001EE100AB8EE411A9DED022A9FEDA7
:101E7000743A82EE032A31EE021AB7EE002A31EEEE
:101E8000021A20EE010A8DED010A23E09DED050AFC
:101E9000B8EE401A9FED6C0A80EE010A44F2404011
:101EA000C5F6020000686FF35F2001EE100AB8EE7D
:101EB000411A9DED022A9FED623A82EE032A31EE2D
:101EC000021AB7EE002A31EE021A20EE010A8DED59
:101ED000010AFFE76BE09DED050AB8EE401A9FEDA1
:101EE000590A80EE010A44F24040C5F6020000683B
:101EF0006FF35F2001EE100AB8EE411A9DED022A41
:101F00009FED4F3A82EE032A31EE021AB7EE002A15
:101F100031EE021A20EE010A8DED010A47E09DED37
:101F2000050AB8EE401A9FED450A80EE010A44F218
:101F30004040C5F6020000686FF35F2001EE100A12
:101F4000B8EE411A9DED022A9FED3D3A82EE032A3A
:101F500031EE021AB7EE002A31EE021A20EE010A23
:101F60008DED010A23E09DED050AB8EE401A9FEDC4
:101F7000350A80EE010A44F24040C5F602000068CE
:101F80006FF35F2001EE100AB8EE411A9DED022AB0
:101F90009FED2B3A82EE032A31EE021AB7EE002AA9
:101FA00031EE021A20EE010A8DED010AFFE79DEDE8
:101FB000010A44F24040C5F60200016889B2490AAC
:101FC00001EE101AB8EE411AB7EE002A31EE021AED
:101FD00080EE010A0799BCEEC00A81ED000A9DED72
:101FE000010A0168C1F3064101EE101AB8EE411A68
:101FF00031EE021A80EE010A0799BCEEC00A81EDAB
:10200000010A9DED010A0068C0F3066001EE100AA6
:10201000B8EE411A31EE021A80EE010A0798BCEEC2
:10202000C00A80ED020A07E00799002008600799BE
:10203000486007998860FFE708B0704720BCBE4B36
:10204000000000460024744A0024744C0000000084
:1020500080B59AB0189000208DF857008DF8560082
:102060001898C0780007002848D5FFE71898406EF8
:10207000149078B1FFE71498B0F5801F13D0FFE7F4
:102080001498B0F5001F16D0FFE71498B0F5401F64
:1020900019D019E044F22C41C5F60201086840F459
:1020A0000030086014E018980430022103F018FA98
:1020B0008DF857000CE018982430022103F0F8FA4C
:1020C0008DF8570004E003E001208DF85700FFE78A
:1020D0009DF8570060B9FFE744F25041C5F6020190
:1020E000086820F44010189A526E1043086004E00B
:1020F0009DF857008DF85600FFE7FFE718984078E5
:10210000C007002840D0FFE71898406D13900428BE
:1021100020D81399DFE801F0030C141C1D0044F2D1
:102120002C41C5F60201086840F40030086015E053
:1021300018980430002103F0D3F98DF857000DE012
:1021400018982430002103F0B3FA8DF8570005E009
:1021500004E003E001208DF85700FFE79DF85700E9
:1021600060B9FFE744F25041C5F60201086820F06B
:102170000700189A526D1043086004E09DF857005C
:102180008DF85600FFE7FFE7189840788007002891
:102190004BD5FFE71898806D129088B1FFE7129831
:1021A000402816D0FFE7129880281AD0FFE712982F
:1021B000C0281ED0FFE71298B0F5807F1AD01AE031
:1021C00044F22C41C5F60201086840F40030086072
:1021D00015E018980430002103F082F98DF85700BB
:1021E0000DE018982430002103F062FA8DF85700B2
:1021F00005E004E003E001208DF85700FFE79DF8BB
:10220000570060B9FFE744F25041C5F60201086883
:1022100020F4E070189A926D1043086004E09DF875
:1022200057008DF85600FFE7FFE718984078400701
:10223000002850D5FFE71898D0F8A4001190A0B15D
:10224000FFE71198B0F5001F18D0FFE71198B0F51F
:10225000800F1BD0FFE71198B0F5C00F1ED0FFE72D
:102260001198B0F5000F1AD01AE044F22C41C5F6CF
:102270000201086840F40030086015E01898043046
:10228000002103F02DF98DF857000DE01898243047
:10229000002103F00DFA8DF8570005E004E003E09B
:1022A00001208DF85700FFE79DF8570068B9FFE758
:1022B00044F25841C5F60201086820F46000189AFB
:1022C000D2F8A4201043086004E09DF857008DF870
:1022D0005600FFE7FFE7189840780007002850D520
:1022E000FFE71898D0F8A8001090A0B1FFE7109869
:1022F000B0F1807F18D0FFE71098B0F1007F1BD0BD
:10230000FFE71098B0F1407F1ED0FFE71098B0F1C2
:10231000806F1AD01AE044F22C41C5F60201086819
:1023200040F40030086015E018980430002103F0F4
:10233000D7F88DF857000DE018982430002103F0ED
:10234000B7F98DF8570005E004E003E001208DF8AF
:102350005700FFE79DF8570068B9FFE744F258417E
:10236000C5F60201086820F0E060189AD2F8A820AB
:102370001043086004E09DF857008DF85600FFE711
:10238000FFE71898C078800700283ED5FFE7189827
:10239000806C0F90F0B1FFE70F98102808D0FFE78E
:1023A0000F9820280DD0FFE70F98302811D012E0A9
:1023B00044F22C41C5F60201086840F40030086080
:1023C0000DE018980430022103F08AF88DF85700C8
:1023D00005E004E003E001208DF85700FFE79DF8D9
:1023E000570060B9FFE744F24C41C5F602010868A6
:1023F00020F03000189A926C1043086004E09DF8B9
:1024000057008DF85600FFE7FFE718984078C006A0
:1024100000284ED5FFE71898C06D0E90A0B1FFE7D9
:102420000E98B0F5805F18D0FFE70E98B0F5005F0A
:102430001BD0FFE70E98B0F5405F1ED0FFE70E9867
:10244000B0F5804F1AD01AE044F22C41C5F60201D3
:10245000086840F40030086015E018980430002146
:1024600003F03EF88DF857000DE018982430002155
:1024700003F01EF98DF8570005E004E003E00120A9
:102480008DF85700FFE79DF8570060B9FFE744F269
:102490005041C5F60201086820F4E040189AD26D58
:1024A0001043086004E09DF857008DF85600FFE7E0
:1024B000FFE718984078800600284CD5FFE7189869
:1024C000006E0D90C8B1FFE70D98B0F5803F15D0B4
:1024D000FFE70D98B0F5003F18D0FFE70D98B0F575
:1024E000403F1BD0FFE70D98B0F5802F17D0FFE7D6
:1024F0000D98B0F5A02F13D013E016E01898043013
:10250000012102F0EDFF8DF857000EE018982430FD
:10251000012103F0CDF88DF8570006E005E004E056
:1025200003E001208DF85700FFE79DF8570060B9E0
:10253000FFE744F25041C5F60201086820F4E020AC
:10254000189A126E1043086004E09DF857008DF849
:102550005600FFE7FFE718984078400600284ED560
:10256000FFE71898D0F8AC000C90C8B1FFE70C98C2
:10257000B0F1805F15D0FFE70C98B0F1005F18D084
:10258000FFE70C98B0F1405F1BD0FFE70C98B0F16B
:10259000804F17D0FFE70C98B0F1A04F13D013E095
:1025A00016E018980430012102F09AFF8DF85700C8
:1025B0000EE018982430012103F07AF88DF85700C6
:1025C00006E005E004E003E001208DF85700FFE796
:1025D0009DF8570068B9FFE744F25841C5F602017B
:1025E000086820F0E040189AD2F8AC201043086048
:1025F00004E09DF857008DF85600FFE7FFE71898B4
:102600004078000600283BD5FFE71898C06E0B9075
:10261000D8B1FFE70B98B0F1805F05D0FFE70B98CA
:10262000B0F1005F09D011E044F22C41C5F602017F
:10263000086840F4003008600CE01898043001216C
:1026400002F04EFF8DF8570004E003E001208DF802
:102650005700FFE79DF8570060B9FFE744F250418B
:10266000C5F60201086820F04050189AD26E104357
:10267000086004E09DF857008DF85600FFE7FFE77B
:102680001898C078C007002837D0FFE71898406C2A
:102690000A90032817D80A99DFE801F014020B13F7
:1026A00044F22C41C5F60201086840F4003008608D
:1026B0000DE018980430022102F012FF8DF8570047
:1026C00005E004E003E001208DF85700FFE79DF8E6
:1026D000570060B9FFE744F24C41C5F602010868B3
:1026E00020F00300189A526C1043086004E09DF833
:1026F00057008DF85600FFE7FFE7189880784006EE
:10270000002840F1B480FFE744F60001C5F602015D
:10271000086840F480700860FFF7AAF81690FFE799
:1027200044F60000C5F602000068C00500280CD47D
:10273000FFE7FFF79DF81699401A652804D3FFE7D5
:1027400003208DF8570000E0EAE79DF857000028C5
:1027500040F08780FFE744F27040C5F60200006851
:1027600000F440701899D1F8B01001F4407188421B
:1027700013D0FFE744F27041C5F60201086820F467
:1027800040701790086840F480300860086820F4B2
:102790008030086017980860FFE71898D0F8B000FC
:1027A000B0F5807F1FD1FFE7FFF762F81690FFE7D3
:1027B00044F27040C5F60200006800F002010020FB
:1027C000B0EB510F0ED1FFE7FFF752F81699401A00
:1027D00041F28931884204D3FFE703208DF8570086
:1027E00000E0E5E7FFE79DF85700A0BBFFE7FFE744
:1027F0001898D0F8B00000F44070B0F5407F13D1C5
:10280000FFE744F21041C5F60201086820F47C504D
:10281000189AD2F8B0204FF6F043C0F6FF731A4072
:1028200040EA1210086008E044F21041C5F60201C7
:10283000086820F47C500860FFE71898D0F8B020B2
:102840006FF31F3244F27041C5F60201086810436D
:102850000860FFE704E09DF857008DF85600FFE799
:1028600004E09DF857008DF85600FFE7FFE7189841
:102870000078C007002800F04C80FFE71898806FB0
:10288000099028282BD80999DFE801F01529292972
:102890002929292916292929292929291E292929C6
:1028A000292929292629292929292929272929299D
:1028B00029292929280016E018980430012102F05E
:1028C0000FFE8DF857000EE018982430012102F019
:1028D000EFFE8DF8570006E005E004E003E001207C
:1028E0008DF85700FFE79DF8570060B9FFE744F205
:1028F0005441C5F60201086820F03800189A926F1A
:102900001043086004E09DF857008DF85600FFE77B
:10291000FFE7189800788007002839D5FFE7189856
:10292000406F0890052819D80899DFE801F00304E2
:102930000C14151616E018980430012102F0D0FD91
:102940008DF857000EE018982430012102F0B0FEF7
:102950008DF8570006E005E004E003E001208DF863
:102960005700FFE79DF8570060B9FFE744F2544174
:10297000C5F60201086820F00700189A526F10434C
:10298000086004E09DF857008DF85600FFE7FFE768
:1029900018980078400700283BD5FFE71898D0F832
:1029A00090000790052819D80799DFE801F0030483
:1029B0000C14151616E018980430012102F090FD51
:1029C0008DF857000EE018982430012102F070FEB7
:1029D0008DF8570006E005E004E003E001208DF8E3
:1029E0005700FFE79DF8570068B9FFE744F25841E8
:1029F000C5F60201086820F00700189AD2F8902066
:102A00001043086004E09DF857008DF85600FFE77A
:102A1000FFE718980078800600284ED5FFE7189841
:102A2000D0F88C000690C8B1FFE70698B0F1805F3F
:102A300015D0FFE70698B0F1005F18D0FFE70698C1
:102A4000B0F1405F1BD0FFE70698B0F1804F17D080
:102A5000FFE70698B0F1A04F13D013E016E01898E6
:102A60000430002102F03CFD8DF857000EE018986C
:102A70002430022102F01CFE8DF8570006E005E02C
:102A800004E003E001208DF85700FFE79DF85700B0
:102A900068B9FFE744F25441C5F60201086820F026
:102AA000E040189AD2F88C201043086004E09DF8AA
:102AB00057008DF85600FFE7FFE7189800784006AA
:102AC00000284ED5FFE71898D0F898000590C8B1B7
:102AD000FFE70598B0F5806F15D0FFE70598B0F5D2
:102AE000006F18D0FFE70598B0F5406F1BD0FFE7E7
:102AF0000598B0F5805F17D0FFE70598B0F5A05FA7
:102B000013D013E016E018980430002102F0E8FC1E
:102B10008DF857000EE018982430022102F0C8FD0D
:102B20008DF8570006E005E004E003E001208DF891
:102B30005700FFE79DF8570068B9FFE744F2584196
:102B4000C5F60201086820F4E050189AD2F89820DF
:102B50001043086004E09DF857008DF85600FFE729
:102B6000FFE718980078000600284ED5FFE7189870
:102B7000D0F89C000490C8B1FFE70498B0F5005F5E
:102B800015D0FFE70498B0F5804F18D0FFE7049800
:102B9000B0F5C04F1BD0FFE70498B0F5004F17D039
:102BA000FFE70498B0F5204F13D013E016E0189813
:102BB0000430002102F094FC8DF857000EE01898C4
:102BC0002430022102F074FD8DF8570006E005E084
:102BD00004E003E001208DF85700FFE79DF857005F
:102BE00068B9FFE744F25841C5F60201086820F4CD
:102BF0006040189AD2F89C201043086004E09DF8C9
:102C000057008DF85600FFE7FFE718980078000797
:102C1000002820D5FFE71898D0F88000B0F5805F35
:102C20000CD1FFE718982430022102F041FD20B1B9
:102C3000FFE701208DF85600FFE7FFE744F254411B
:102C4000C5F60201086820F44050189AD2F8802096
:102C500010430860FFE718980078C006002820D5C8
:102C6000FFE71898D0F89400B0F5807F0CD1FFE70B
:102C700018982430022102F01BFD20B1FFE701204B
:102C80008DF85600FFE7FFE744F25841C5F6020110
:102C9000086820F44070189AD2F894201043086015
:102CA000FFE718988078000700283CD5FFE71898C0
:102CB000D0F8A000039050B1FFE70398B0F5803F33
:102CC0000DD0FFE70398B0F5003F10D010E0189842
:102CD0000430002102F004FC8DF857000CE0189835
:102CE0002430022102F0E4FC8DF8570004E003E0F8
:102CF00001208DF85700FFE79DF8570068B9FFE7FE
:102D000044F25841C5F60201086820F44030189A90
:102D1000D2F8A0201043086004E09DF857008DF819
:102D20005600FFE7FFE718988078400700283FD556
:102D3000FFE71898D0F884000290B0F5801F0AD001
:102D4000FFE70298B0F5001F0ED0FFE70298B0F53C
:102D5000401F11D011E044F22C41C5F60201086871
:102D600040F4003008600CE018982430012102F093
:102D70009FFC8DF8570004E003E001208DF8570018
:102D8000FFE79DF8570068B9FFE744F25441C5F6E4
:102D90000201086820F44010189AD2F884201043E9
:102DA000086004E09DF857008DF85600FFE7FFE744
:102DB00018988078C007A8B3FFE71898C06C0190F6
:102DC00028B1FFE70198B0F5803F09D010E044F248
:102DD0002C41C5F60201086840F4003008600BE0A1
:102DE00018980430022102F07BFB8DF8570003E0B5
:102DF00001208DF85700FFE79DF8570060B9FFE705
:102E000044F24C41C5F60201086820F48030189A5B
:102E1000D26C1043086004E09DF857008DF856000E
:102E2000FFE7FFE71898C078800600280CD5FFE779
:102E300018982430022102F03BFC20B1FFE701206A
:102E40008DF85600FFE7FFE7189880788007002884
:102E50003AD5FFE71898C06F0090D0B1FFE700980F
:102E6000B0F5807F0AD0FFE70098B0F5007F0ED064
:102E7000FFE70098B0F5407F0AD00BE044F22C4108
:102E8000C5F60201086840F40030086006E005E07D
:102E900004E003E001208DF85700FFE79DF857009C
:102EA00060B9FFE744F25441C5F60201086820F416
:102EB0004070189AD26F1043086004E09DF85700E4
:102EC0008DF85600FFE7FFE718988078C0060028C5
:102ED0000CD5FFE744F25041C5F60201086820F026
:102EE0000040189A126F10430860FFE71898C078E6
:102EF000C00600280DD5FFE744F21041C5F60201D7
:102F0000086820F48040189AD2F8B4201043086072
:102F1000FFE718988078800600280CD5FFE744F278
:102F20005041C5F60201086820F08070189A926E30
:102F300010430860FFE71898C0784006002811D5B4
:102F4000FFE7FFE744F21041C5F60201086820F4EC
:102F5000004008601898D0F8B8200868104308604E
:102F6000FFE7FFE71898C078000600280CD5FFE7B8
:102F700044F24C41C5F60201086820F04050189A0E
:102F8000126D10430860FFE79DF8560020B9FFE777
:102F900000208DF8670003E001208DF86700FFE74F
:102FA0009DF867001AB080BD80B586B0049003918B
:102FB000049820B9FFE701208DF817003CE2039840
:102FC00042F20001C5F20021096801F00F018842B8
:102FD00016D9FFE742F20000C5F20020016821F097
:102FE0000F01039A11430160006800F00F0003997C
:102FF000884204D0FFE701208DF817001CE2FFE7AC
:10300000049800784007002819D5FFE70498006964
:1030100044F21841C5F60201096801F070018842C6
:103020000CD9FFE744F21841C5F60201086820F008
:103030007000049A126910430860FFE7FFE70498E4
:1030400000780007002819D5FFE70498406944F28A
:103050001C41C5F60201096801F0700188420CD9D3
:10306000FFE744F21C41C5F60201086820F0700039
:10307000049A526910430860FFE7FFE7049800785C
:10308000C006002819D5FFE70498806944F21C4166
:10309000C5F60201096801F4E06188420CD9FFE736
:1030A00044F21C41C5F60201086820F4E060049A6D
:1030B000926910430860FFE7FFE7049800788006F4
:1030C000002819D5FFE70498C06944F22041C5F6ED
:1030D0000201096801F0700188420CD9FFE744F24F
:1030E0002041C5F60201086820F07000049AD269F8
:1030F00010430860FFE7FFE7049800788007002886
:1031000019D5FFE70498C06844F21841C5F60201DA
:10311000096801F00F0188420CD9FFE744F2184119
:10312000C5F60201086820F00F00049AD268104327
:103130000860FFE7FFE704980078C007002800F068
:103140008C80FFE744F21841C5F60201086820F4BC
:103150007060049A926810430860049840680228DE
:1031600011D1FFE744F20040C5F60200006800F408
:1031700000310020B0EB514F04D1FFE701208DF862
:10318000170059E13EE004984068032811D1FFE799
:1031900044F20040C5F60200006800F00071002013
:1031A000B0EB516F04D1FFE701208DF8170043E128
:1031B00027E004984068012811D1FFE744F200405D
:1031C000C5F60200006800F480710020B0EB112FFA
:1031D00004D1FFE701208DF817002DE110E044F243
:1031E0000040C5F60200006800F004010020B0EBCA
:1031F000910F04D1FFE701208DF817001CE1FFE7D4
:10320000FFE7FFE744F21041C5F60201086820F02D
:103210000700049A526810430860FEF729FB0190EA
:10322000FFE744F21040C5F60200006800F03800E5
:1032300004994968B0EBC10F0ED0FFE7FEF718FB09
:103240000199401A41F28931884204D3FFE70320F3
:103250008DF81700F0E0E4E7FFE7049800788007B6
:10326000002819D5FFE70498C06844F21841C5F654
:103270000201096801F00F0188420CD2FFE744F215
:103280001841C5F60201086820F00F00049AD268C0
:1032900010430860FFE7FFE7039842F20001C5F220
:1032A0000021096801F00F01884216D2FFE742F2BF
:1032B0000000C5F20020016821F00F01039A1143BC
:1032C0000160006800F00F000399884204D0FFE716
:1032D00001208DF81700AFE0FFE704980078400761
:1032E000002819D5FFE70498006944F21841C5F693
:1032F0000201096801F0700188420CD2FFE744F234
:103300001841C5F60201086820F07000049A12699D
:1033100010430860FFE7FFE70498007800070028E3
:1033200019D5FFE70498406944F21C41C5F6020133
:10333000096801F0700188420CD2FFE744F21C4199
:10334000C5F60201086820F07000049A5269104323
:103350000860FFE7FFE704980078C006002819D549
:10336000FFE70498806944F21C41C5F60201096830
:1033700001F4E06188420CD2FFE744F21C41C5F63B
:103380000201086820F4E060049A92691043086022
:10339000FFE7FFE7049800788006002819D5FFE7CB
:1033A0000498C06944F22041C5F60201096801F0A1
:1033B000700188420CD2FFE744F22041C5F60201B9
:1033C000086820F07000049AD26910430860FFE793
:1033D000FFE700F089F844F21842C5F602021168CE
:1033E000C1F303234EF2BA31C0F60101CB5C03F006
:1033F0001F03D84000900098126802F00F02895C09
:1034000001F01F01C84040F20801C2F2004108600B
:10341000009840F20401C2F20041086040F210003E
:10342000C2F200400068FEF79BFA8DF80B009DF891
:103430000B008DF81700FFE79DF8170006B080BD60
:1034400080B582B000F050F844F21842C5F602028E
:103450001168C1F303234EF2BA31C0F60101CB5C0F
:1034600003F01F03D84001900198126802F00F0288
:10347000895C01F01F0120FA01F140F20800C2F25C
:1034800000400160019940F20402C2F20042116062
:10349000006802B080BD000080B5FFF7D1FF44F2A4
:1034A0001C41C5F602010968C1F302124EF2BA319D
:1034B000C0F60101895C01F01F01C84080BD000019
:1034C00080B5FFF7BDFF44F21C41C5F60201096853
:1034D000C1F302224EF2BA31C0F60101895C01F05B
:1034E0001F01C84080BD00008AB044F21040C5F6FC
:1034F0000200006800F0380001460191182800F22F
:1035000069810199DFE811F0190066016601660121
:1035100066016601660166013A00660166016601A0
:10352000660166016601660140006601660166018A
:103530006601660166016601460044F20040C5F678
:103540000200006800F020010020B0EB511F0ED0F7
:10355000FFE744F20040C5F602000068C0F3C10175
:1035600049F20000C0F2D030C840029005E049F2B4
:103570000000C0F2D0300290FFE731E140F60010C9
:10358000C0F23D0002902BE147F64000C0F27D10F2
:10359000029025E144F22840C5F60200016801F0DE
:1035A000030108910068C0F30510079044F22C4015
:1035B000C5F60200006800F001000690069844F28B
:1035C0003441C5F60201096889B2C908484300EED2
:1035D000100AB8EE400A8DED040A0798002800F0A2
:1035E000F580FFE70898009048B1FFE700980128B0
:1035F00069D0FFE70098022800F08980ABE044F230
:103600000040C5F60200006800F020010020B0EB89
:10361000511F33D0FFE744F20040C5F602000068B6
:10362000C0F3C10149F20000C0F2D030C84005909B
:103630009DED050AB8EE400A9DED071AB8EE411A55
:1036400080EE010A44F23040C5F6020000686FF3D4
:103650005F2001EE100AB8EE411A9DED042A9FED9D
:10366000633A82EE032A31EE021AB7EE002A31EEF7
:10367000021A20EE010A8DED030A23E09DED070AF0
:10368000B8EE401A9FED5B0A80EE010A44F230402A
:10369000C5F6020000686FF35F2001EE100AB8EE75
:1036A000411A9DED042A9FED513A82EE032A31EE34
:1036B000021AB7EE002A31EE021A20EE010A8DED51
:1036C000030AFFE76BE09DED070AB8EE401A9FED95
:1036D000480A80EE010A44F23040C5F60200006854
:1036E0006FF35F2001EE100AB8EE411A9DED042A37
:1036F0009FED3E3A82EE032A31EE021AB7EE002A1F
:1037000031EE021A20EE010A8DED030A47E09DED2D
:10371000070AB8EE401A9FED340A80EE010A44F21F
:103720003040C5F6020000686FF35F2001EE100A1A
:10373000B8EE411A9DED042A9FED2C3A82EE032A41
:1037400031EE021AB7EE002A31EE021A20EE010A1B
:103750008DED030A23E09DED070AB8EE401A9FEDB8
:10376000240A80EE010A44F23040C5F602000068E7
:103770006FF35F2001EE100AB8EE411A9DED042AA6
:103780009FED1A3A82EE032A31EE021AB7EE002AB2
:1037900031EE021A20EE010A8DED030AFFE744F232
:1037A0003040C5F60200006881B2012000EB5120D4
:1037B00009909DED030A9DED091AB8EE411A80EEBD
:1037C000010ABCEEC00A8DED020A02E00020029060
:1037D000FFE705E040F60010C0F23D000290FFE771
:1037E00002980AB0704700BF20BCBE4B00000046E4
:1037F0000024744A0024744C80B58CB00A900A9856
:1038000028B9FFE701208DF82F0000F040BD0A988D
:103810000078C007002800F0BD80FFE744F21040A8
:10382000C5F60200006800F03800069044F2284017
:10383000C5F6020000680590069810280AD0FFE738
:10384000069818281CD1FFE7059800F0030002280D
:1038500016D1FFE744F20040C5F60200006800F40C
:1038600000310020B0EB514F09D0FFE70A984068C3
:1038700028B9FFE701208DF82F0000F008BD88E08F
:10388000FFE70A984068B0F5803F09D1FFE744F2AE
:103890000041C5F60201086840F48030086032E05B
:1038A0000A98406868B9FFE744F20041C5F6020192
:1038B000086820F480300860086820F480200860E0
:1038C00020E00A984068B0F5A02F0DD1FFE744F240
:1038D0000041C5F60201086840F4802008600868CD
:1038E00040F4803008600CE044F20041C5F602016B
:1038F000086820F480300860086820F480200860A0
:10390000FFE7FFE7FFE7FFE70A98406800B3FFE73C
:10391000FDF7AEFF0990FFE744F20040C5F6020054
:10392000006800F400310020B0EB514F0FD1FFE7E9
:10393000FDF79EFF0999401A41F28931884205D36B
:10394000FFE703208DF82F0000F0A1BCE4E71FE0A3
:10395000FDF78EFF0990FFE744F20040C5F6020034
:10396000006800F400310020B0EB514F0FD0FFE7AA
:10397000FDF77EFF0999401A41F28931884205D34B
:10398000FFE703208DF82F0000F081BCE4E7FFE79C
:10399000FFE7FFE70A9800788007002840F1ED80F4
:1039A000FFE744F21040C5F60200006800F038005E
:1039B000049044F22840C5F6020000680390049881
:1039C00050B1FFE70498182850D1FFE79DF80C008C
:1039D000800700284AD1FFE744F20040C5F6020004
:1039E000006800F004010020B0EB910F09D0FFE760
:1039F0000A98C06828B9FFE701208DF82F0000F071
:103A000046BCFFE7FDF72CFF41F2030188421DD8B9
:103A1000FFE70A98006940280AD1FFE744F2044111
:103A2000C5F602010868202262F3113008600CE03C
:103A300044F20441C5F60201086820F47C300A9A79
:103A4000126940EA02300860FFE70CE044F20441EA
:103A5000C5F60201086820F0FE400A9A126940EAA1
:103A600002600860FFE7FFE7FFE785E00A98C068AB
:103A700000285BD0FFE744F20041C5F60201086868
:103A800020F019000A9AD26810430860FDF7F0FE92
:103A90000990FFE744F20040C5F60200006800F01C
:103AA00004010020B0EB910F0CD1FFE7FDF7E0FE21
:103AB0000999401A032804D3FFE703208DF82F004B
:103AC000E5E3E7E7FFE7FDF7CBFE41F203018842BC
:103AD0001DD8FFE70A98006940280AD1FFE744F2A1
:103AE0000441C5F602010868202262F31130086023
:103AF0000CE044F20441C5F60201086820F47C3071
:103B00000A9A126940EA02300860FFE70CE044F2CA
:103B10000441C5F60201086820F0FE400A9A1269C5
:103B200040EA02600860FFE7FFE724E044F200415A
:103B3000C5F60201086820F001000860FDF798FE54
:103B40000990FFE744F20040C5F60200006800F06B
:103B500004010020B0EB910F0CD0FFE7FDF788FEC9
:103B60000999401A032804D3FFE703208DF82F009A
:103B70008DE3E7E7FFE7FFE7FFE70A980078C00675
:103B8000002840F1EB80FFE744F21040C5F6020048
:103B9000006800F03800029044F22840C5F60200A8
:103BA00000680190029808280AD0FFE702981828B8
:103BB00050D1FFE7019800F0030001284AD1FFE748
:103BC00044F20040C5F60200006800F48071002055
:103BD000B0EB112F09D0FFE70A98C069802804D004
:103BE000FFE701208DF82F0051E3FFE7FDF738FED6
:103BF00041F2030188421DD8FFE70A98006A202895
:103C00000AD1FFE744F20441C5F602010868102218
:103C100062F39E6008600CE044F20441C5F60201C4
:103C2000086820F0F8400A9A126A40EA8260086048
:103C3000FFE70CE044F20C41C5F60201086820F0F1
:103C40007C500A9A126A40EA02600860FFE7FFE7C8
:103C5000FFE782E00A98C069002858D0FFE744F2E5
:103C60000041C5F60201086840F080000860FDF7D9
:103C7000FFFD0990FFE744F20040C5F6020000682E
:103C800000F480710020B0EB112F0CD1FFE7FDF79D
:103C9000EFFD0999401A032804D3FFE703208DF8AC
:103CA0002F00F4E2E7E7FFE7FDF7DAFD41F2030159
:103CB00088421DD8FFE70A98006A20280AD1FFE74A
:103CC00044F20441C5F602010868102262F39E60C6
:103CD00008600CE044F20441C5F60201086820F0D7
:103CE000F8400A9A126A40EA82600860FFE70CE036
:103CF00044F20C41C5F60201086820F07C500A9A93
:103D0000126A40EA02600860FFE7FFE724E044F23D
:103D10000041C5F60201086820F080000860FDF748
:103D2000A7FD0990FFE744F20040C5F602000068D5
:103D300000F480710020B0EB112F0CD0FFE7FDF7ED
:103D400097FD0999401A032804D3FFE703208DF853
:103D50002F009CE2E7E7FFE7FFE7FFE70A9800781C
:103D6000000700284FD5FFE70A98406928B3FFE70E
:103D700044F27441C5F60201086840F00100086091
:103D8000FDF776FD0990FFE744F27440C5F60200A6
:103D9000006800F002010020B0EB510F0CD1FFE7EA
:103DA000FDF766FD0999401A032804D3FFE70320B5
:103DB0008DF82F006BE2E7E724E044F27441C5F68A
:103DC0000201086820F001000860FDF751FD09902C
:103DD000FFE744F27440C5F60200006800F00201FB
:103DE0000020B0EB510F0CD0FFE7FDF741FD099922
:103DF000401A032804D3FFE703208DF82F0046E282
:103E0000E7E7FFE7FFE70A980078800600284FD52C
:103E1000FFE70A98806928B3FFE744F20041C5F63E
:103E20000201086840F480500860FDF721FD099008
:103E3000FFE744F20040C5F60200006800F40051BC
:103E40000020B0EB513F0CD1FFE7FDF711FD0999C0
:103E5000401A032804D3FFE703208DF82F0016E251
:103E6000E7E724E044F20041C5F60201086820F4C7
:103E700080500860FDF7FCFC0990FFE744F2004029
:103E8000C5F60200006800F400510020B0EB513F7D
:103E90000CD0FFE7FDF7ECFC0999401A032804D386
:103EA000FFE703208DF82F00F1E1E7E7FFE7FFE7E9
:103EB0000A9800784007002840F1A780FFE744F601
:103EC0000001C5F60201086840F480700860FDF743
:103ED000CFFC0990FFE744F60000C5F60200006839
:103EE000C00500280CD4FFE7FDF7C2FC0999401A71
:103EF000652804D3FFE703208DF82F00C7E1EAE728
:103F0000FFE70A988068012809D1FFE744F2704171
:103F1000C5F60201086840F00100086031E00A9827
:103F2000806868B9FFE744F27041C5F6020108688D
:103F300020F001000860086820F0040008601FE01D
:103F40000A98806805280DD1FFE744F27041C5F654
:103F50000201086840F004000860086840F00100B1
:103F600008600CE044F27041C5F60201086820F0D8
:103F700001000860086820F004000860FFE7FFE720
:103F8000FFE7FFE70A988068F8B1FFE7FDF770FCEC
:103F90000990FFE744F27040C5F60200006800F0A7
:103FA00002010020B0EB510F0ED1FFE7FDF760FCDE
:103FB0000999401A41F28931884204D3FFE703206E
:103FC0008DF82F0063E1E5E71EE0FDF751FC099055
:103FD000FFE744F27040C5F60200006800F00201FD
:103FE0000020B0EB510F0ED0FFE7FDF741FC09991F
:103FF000401A41F28931884204D3FFE703208DF84B
:104000002F0044E1E5E7FFE7FFE70A98406A002850
:1040100000F03981FFE744F21040C5F60200006865
:1040200000F03800182800F0E080FFE70A98406AA6
:10403000022840F0B480FFE744F20041C5F60201D7
:10404000086820F080700860FDF712FC0990FFE717
:1040500044F20040C5F60200006800F00071002044
:10406000B0EB516F0CD0FFE7FDF702FC0999401A45
:10407000032804D3FFE703208DF82F0007E1E7E7CB
:10408000FFE744F22841C5F60201086840F2F33226
:1040900090430A9B9A6ADB6A42EA03121043086063
:1040A0000A99086BD1F834C08B6BCA6B01386FF377
:1040B0005F204FF60061CFF6FF7101EB4C2189B212
:1040C00008440021CFF6FF7101EB034101F4FE012A
:1040D00008444FF07F4101EB026101F0FE410844CA
:1040E00044F23041C5F602010860FFE744F22C417A
:1040F000C5F602010091086820F00100086044F252
:104100003442C5F6020210684FF6F87398430A9BD2
:104110009B6C40EAC3001060086820F00C000A9A0B
:10412000126C10430860086820F002000A9A526C72
:1041300010430860086840F480300860086840F464
:1041400000300860086840F480200860086840F08B
:104150000100086044F20041C5F60201086840F021
:1041600080700860FDF784FB0990FFE744F200408F
:10417000C5F60200006800F000710020B0EB516F3E
:104180000CD1FFE7FDF774FB0999401A032804D30B
:10419000FFE703208DF82F0079E0E7E724E044F201
:1041A0000041C5F60201086820F080700860FDF744
:1041B0005FFB0990FFE744F20040C5F6020000688B
:1041C00000F000710020B0EB516F0CD0FFE7FDF75D
:1041D0004FFB0999401A032804D3FFE703208DF809
:1041E0002F0054E0E7E7FFE74CE044F22840C5F633
:1041F00002000068089044F23040C5F602000068F2
:1042000007900A98406A012837D0FFE7089800F025
:1042100003000A99896A88422FD1FFE7089800F4C1
:104220007C710A98C06AB0EB111F26D1FFE707988E
:104230006FF35F200A99096B013988421DD1FFE7AE
:10424000BDF81C100A98406B0138B0EB512F14D107
:10425000FFE7079800F4FE010A98806B0138B0EB85
:10426000114F0AD1FFE7079800F0FE410A98C06B92
:104270000138B0EB116F04D0FFE701208DF82F005B
:1042800005E0FFE7FFE700208DF82F00FFE79DF82E
:104290002F000CB080BD00004EF21001CEF20001E4
:1042A000086840F00200086070470000000000004D
:1042B00080B584B0029001910092029820B9FFE786
:1042C00001208DF80F0037E0029890F8450040B9C2
:1042D000FFE70299002081F84400029800F030F8CE
:1042E000FFE7029951F8080BFCF7DAFF029A0199EF
:1042F00010689268FDF75CF8029B009958689A680C
:10430000DB6AFCF799FF02980168826851F8220085
:1043100040F0010041F8220044F20001C5F2002102
:10432000086840F0004008600299012081F84500CB
:1043300000208DF80F00FFE79DF80F0004B080BD4E
:1043400081B0009001B070474EF21001CEF2000132
:10435000086820F0020008607047000000000000BC
:1043600080B582B00090009820B9FFE701208DF859
:10437000070045E0009890F83D0040B9FFE700993C
:10438000002081F83C00009800F03EF8FFE700991B
:10439000022081F83D00009951F8040B01F050FD16
:1043A0000099012081F84800FFE70099012081F879
:1043B0003E00009981F83F00009981F84000009983
:1043C00081F84100009981F84200009981F843008A
:1043D000FFE7FFE70099012081F84400009981F888
:1043E0004500009981F84600009981F84700FFE7F1
:1043F0000099012081F83D0000208DF80700FFE7BB
:104400009DF8070002B080BD81B0009001B07047F8
:1044100083B00190019890F83D00012804D0FFE797
:1044200001208DF80B001FE00199022081F83D006A
:104430000198006880680721C0F2010108400090DF
:10444000009806280CD0FFE70098B0F5803F07D011
:10445000FFE701980168086840F001000860FFE785
:1044600000208DF80B00FFE79DF80B0003B07047AC
:1044700080B586B0049003910292FFE7049890F80B
:104480003C00012804D1FFE702208DF81700BCE0B2
:104490000499012081F83C00FFE7FFE702980190B2
:1044A000142800F2A7800199DFE801F00BA4A4A46E
:1044B00024A4A4A43EA4A4A457A4A4A471A4A4A422
:1044C0008A0004980068039901F0A6FD0498016829
:1044D000886940F00800886104980168886920F0C4
:1044E0000400886103980269049801688869104390
:1044F000886180E004980068039901F035FE049813
:104500000168886940F400608861049801688869DE
:1045100020F48060886103980269049801688869C2
:1045200040EA0220886166E004980068039901F07F
:10453000D3FE04980168C86940F00800C861049877
:104540000168C86920F00400C861039802690498F2
:104550000168C8691043C8614DE004980068039978
:1045600001F06EFF04980168C86940F40060C861FA
:1045700004980168C86920F48060C86103980269E2
:1045800004980168C86940EA0220C86133E00498D1
:104590000068039901F0C0FF04980168486D40F07D
:1045A0000800486504980168486D20F004004865DB
:1045B0000398026904980168486D104348651AE041
:1045C00004980068039902F00FF804980168486D98
:1045D00040F40060486504980168486D20F48060EC
:1045E00048650398026904980168486D40EA022012
:1045F000486500E0FFE7FFE70499002081F83C00F0
:10460000FFE700208DF81700FFE79DF8170006B0C0
:1046100080BD00000000000080B582B001900199CB
:10462000022081F83D00FFE701980068006A41F22E
:104630001111084210D1FFE701980068006A40F2AA
:104640004441084207D1FFE701980168086820F05B
:1046500001000860FFE7FFE7FFE7019800F08CF832
:104660000199002081F84800FFE70199002081F8B6
:104670003E00019981F83F00019981F840000199BD
:1046800081F84100019981F84200019981F84300C5
:10469000FFE7FFE70199002081F84400019981F8C4
:1046A0004500019981F84600019981F84700FFE72C
:1046B0000199002081F83D00FFE70199002081F871
:1046C0003C00FFE7002002B080BD000000000000B9
:1046D00080B582B00090009820B9FFE701208DF8E6
:1046E000070045E0009890F83D0040B9FFE70099C9
:1046F000002081F83C00009800F042F8FFE70099A4
:10470000022081F83D00009951F8040B01F098FB5C
:104710000099012081F84800FFE70099012081F805
:104720003E00009981F83F00009981F8400000990F
:1047300081F84100009981F84200009981F8430016
:10474000FFE7FFE70099012081F84400009981F814
:104750004500009981F84600009981F84700FFE77D
:104760000099012081F83D0000208DF80700FFE747
:104770009DF8070002B080BD81B0009001B0704785
:1047800081B0009001B0704780B590B00E900D914F
:104790000D9828B9FFE70E9890F83E000B9034E092
:1047A0000D98042805D1FFE70E9890F83F000A9075
:1047B00028E00D98082805D1FFE70E9890F84000F2
:1047C00009901CE00D980C2805D1FFE70E9890F891
:1047D0004100089010E00D98102805D1FFE70E98D1
:1047E00090F84200079004E00E9890F8430007907C
:1047F000FFE707980890FFE708980990FFE70998F6
:104800000A90FFE70A980B90FFE70B98012804D065
:10481000FFE701208DF83F00A5E00D9828B9FFE7DC
:104820000E99022081F83E0038E00D98042806D148
:10483000FFE70E99022081F83F0006902CE00D98CA
:10484000082806D1FFE70E99022081F84000059064
:104850001FE00D980C2806D1FFE70E99022081F881
:104860004100049012E00D98102806D1FFE70E9940
:10487000022081F84200039005E00E99022081F8A1
:1048800043000390FFE703980490FFE70498059026
:10489000FFE705980690FFE70698FFE70E98006887
:1048A0000D990122019201F09BFB01980E99096874
:1048B0000022C4F20102914202902DD0FFE70E982F
:1048C0000168012040F20042C4F2010291420290CC
:1048D00022D0FFE70E980168012044F20002C4F2E2
:1048E00001029142029017D0FFE70E980168012063
:1048F00044F20042C4F20102914202900CD0FFE760
:104900000E9800684BF60001CBF6FE710844B0FA31
:1049100080F040090290FFE70298C00738B1FFE736
:104920000E980168486C40F400404864FFE70E9818
:10493000006880680721C0F2010108400C900C98C3
:1049400006280CD0FFE70C98B0F5803F07D0FFE7B2
:104950000E980168086840F001000860FFE7002039
:104960008DF83F00FFE79DF83F0010B080BD0000CC
:1049700080B582B00090009820B9FFE701208DF843
:10498000070046E00098806908B1FFE700E0FFE714
:104990000098D0F8800040B9FFE70099002081F826
:1049A0007C00009800F03CF8FFE700992420C1F853
:1049B000800000980168086820F0010008600098F5
:1049C00001F072FF012804D1FFE701208DF80700F4
:1049D0001FE00098806A20B1FFE7009801F06CFEAC
:1049E000FFE700980168486820F49040486000980C
:1049F0000168886820F02A008860009801680868CB
:104A000040F001000860009801F0FAFE8DF8070000
:104A1000FFE79DF8070002B080BD00000000000025
:104A200081B0009001B0704780B59CB009A800909B
:104A30004C21FBF76BFF0098002101910891079131
:104A40000691059104910391029144F20002C5F28E
:104A50000022099244F20412C5F200220A920522B1
:104A60000292022203920492012305930692079276
:104A700008910B910C910D9120220E920F911091A3
:104A800011914FF480521292139114911591169135
:104A90001791189102AA1146FFF70AFC48B1FFE7E7
:104AA0004EF6C600C0F601004FF49271FCF7B8FB59
:104AB000FFE71CB080BD000080B58EB0FFE744F278
:104AC000E040C5F60200016841F00801016000689D
:104AD00000F0080008900898FFE7FFE744F2E04084
:104AE000C5F60200016841F010010160006800F0A5
:104AF000100007900798FFE7FFE744F2E040C5F693
:104B00000200016841F040010160006800F04000CF
:104B100006900698FFE7FFE744F2E040C5F6020082
:104B2000016841F080010160006800F0800005909C
:104B30000598FFE7FFE744F2E040C5F60200016890
:104B400041F480710160006800F480700490049862
:104B5000FFE7FFE744F2D440C5F60200016841F4E4
:104B600080510160006800F4805003900398FFE7D3
:104B700002200A9001200B90032001900C900C2041
:104B80000D904CF2B370099040F60040C5F602005B
:104B900009A90291FCF768FC02994FF68070099010
:104BA00041F20000C5F60200FCF75EFC0198029994
:104BB000099041F60000C5F60200FCF755FC029989
:104BC0004FF47F40099041F60040C5F60200FCF723
:104BD0004BFC029940F2CF60099042F20000C5F60A
:104BE0000200FCF741FC0EB080BD00000000000098
:104BF00082B0009045F29C20C2F20040006800990B
:104C0000084204D0FFE701208DF8070003E00020F0
:104C10008DF80700FFE79DF8070002B0704700001D
:104C200082B001908DF803109DF8030048B9FFE7AA
:104C3000019A45F29C21C2F2004108689043086045
:104C400008E0019A45F29C21C2F200410868104335
:104C50000860FFE745F29C20C2F20040006841F284
:104C60000001C6F20001086002B0704700000000B9
:104C700085B004904EF62C50CEF200000068C00FB4
:104C800068B1FFE74EF62C51CEF20001086840F003
:104C900000400860049988690230886199E04EF606
:104CA0002450CEF20000006844F2FC71C2F20041D0
:104CB000019108624EF62850CEF20000007881F88B
:104CC00024004EF62950CEF20000007888624EF69D
:104CD0003850CEF200000068C8624EF62A50CEF27C
:104CE0000000008808864EF62C50CEF200000068C6
:104CF00048634EF63050CEF20000006888634EF6EE
:104D00003C50CEF200000068C8634EF62A10C0F690
:104D10000100039000208DF80B00FFE79DF80B00C9
:104D200028281BD8FFE703989DF80B10405C41F240
:104D30002801C4F201010860FFE741F21C00C4F23F
:104D4000010000684006002801D4FFE7F5E7FFE70F
:104D50009DF80B0001308DF80B00DFE744F6FC21D5
:104D6000C2F2004100200860FFE744F6FC20C2F2D6
:104D70000040006808B9FFE7F7E70498006844F2CC
:104D8000FC71C2F2004100910860049840684860DC
:104D90000498806888600498C068C86004980069B6
:104DA00008610498406948610498806988610498A2
:104DB000C069C86144F6FC21C2F2004100200860CD
:104DC000FFE744F6FC20C2F20040006808B9FFE7A4
:104DD000F7E705B07047000080B5C6B0012012901B
:104DE0000020309012A8FDF733F9FFE744F2E040CD
:104DF000C5F60200016841F001010160006800F0A1
:104E0000010011901198FFE7FFE744F2E040C5F67A
:104E10000200016841F001010160006800F001003A
:104E200010901098FFE7FFE744F2F040C5F602004B
:104E3000016841F010010160006800F010000F905F
:104E40000F98FFE74FF4007041900220429001203C
:104E50004390032044900720069045900020C5F61B
:104E60000200079041A90891FCF7FEFA069A0798FC
:104E700008994FF4806341934592FCF7F5FA252099
:104E80000990042100220A92FCF7FEFD0998FCF724
:104E9000EFFD0A9A41F20000C4F201000B904FF4BA
:104EA000E1310C2318F0DCFB0B9941F22002C4F233
:104EB0000102106840F04000106041F21802C4F294
:104EC0000102106840F008001060086840F02000FF
:104ED0000860FFE744F2E040C5F60200016841F0D7
:104EE00002010160006800F002000E900E98FFE7DA
:104EF000FFE744F2E040C5F60200016841F002011C
:104F00000160006800F002000D900D98FFE7FFE7D8
:104F100044F2E840C5F60200016841F480210160D6
:104F2000006800F480200C900C98FFE74FF480603C
:104F3000419002204290012043900320039044902E
:104F400007200090459040F20040C5F60200019015
:104F500041A90291FCF788FA009A019802994FF44E
:104F6000006341934592FCF77FFA039A272004904F
:104F70000421FCF789FD0498FCF77AFD44F6000053
:104F8000C4F2000005904FF4165100220C2318F0D3
:104F900067FB059944F62002C4F20002106840F055
:104FA0004000106044F61802C4F20002106840F09D
:104FB00008001060086840F02000086046B080BD1E
:104FC00080B582B08DF806009DF80600072839DC10
:104FD000FFE700208DF80400FF218DF803108DF805
:104FE0000500FFE79DF80500072817DCFFE79DF89F
:104FF000050000F05DF850B1FFE79DF804000130B6
:105000008DF804009DF805008DF80300FFE7FFE729
:105010009DF8050001308DF80500E3E79DF80400D8
:1050200001280BD1FFE79DF803009DF80610884288
:1050300004D1FFE701208DF8070035E000208DF84E
:10504000070031E09DF80600082812D1FFE7002094
:1050500000F02EF848B1FFE7012000F029F820B158
:10506000FFE701208DF807001EE000208DF8070003
:105070001AE09DF80600092812D1FFE7012000F090
:1050800017F848B1FFE7022000F012F820B1FFE75F
:1050900001208DF8070007E000208DF8070003E0ED
:1050A00000208DF80700FFE79DF8070002B080BDE3
:1050B00081B08DF802009DF802004EF2E431C0F696
:1050C000010151F8300000699DF8022001EBC20196
:1050D0008988084204D1FFE700208DF8010003E031
:1050E00001208DF80100FFE79DF801009DF80220E6
:1050F0004EF2E431C0F6010101EBC2018979884228
:1051000004D1FFE701208DF8030003E000208DF8B3
:105110000300FFE79DF8030001B0704700000000A6
:1051200080B588B00020029007900690059004900A
:10513000FCF76EFC0298012101918DF810104FF0E0
:105140001052059212228DF81820032200928DF839
:105150001B208DF81F008DF81E108DF81D008DF896
:1051600011008DF81A008DF819008DF81C0004A8A4
:105170000390FCF7FDFB009B019A029903988DF8C0
:1051800010204FF0C04CCDF814C04FF00F0C8DF82C
:1051900018C08DF81B308DF81F208DF81E108DF86B
:1051A0001D108DF811208DF81A108DF819108DF83A
:1051B0001C10FCF7DDFB0420FCF73EFC08B080BDB2
:1051C00080B588B0069005910492039306980290EA
:1051D000B0F5803F0CD0FFE70298B0F1011F10D06E
:1051E000FFE702980221C0F20101884212D025E0B7
:1051F0004EF25150C0F6010018F03AFC0020079022
:105200001FE04EF26550C0F6010018F031FC00209E
:10521000079016E00598049A69464A60086040F2D3
:105220000040C5F60200022140F20042C4F2000232
:10523000042318F0E9F80020079002E01D200790F1
:10524000FFE7079808B080BD80B59AB01990189113
:1052500017926320059019981899179A0CF038FA4C
:105260001690169840B1FFE74EF2A270C0F601000A
:105270009421FBF7D5FFFFE7199804A90DF05CFD19
:105280001690169840B1FFE74EF2A270C0F60100EA
:105290009C21FBF7C5FFFFE74EF20160C0F601005D
:1052A000FBF77AFE19984168179A4EF24260C0F6F1
:1052B0000100FBF771FE1998016A826B4EF28A6059
:1052C000C0F60100FBF768FE4EF2ED50C0F601009B
:1052D000FBF762FE04990120B0EB516F06D1FFE7A6
:1052E0004EF26E70C0F6010003900EE09DF81320A0
:1052F0004EF29271C0F601014EF29B70C0F60100B1
:10530000012A08BF08460390FFE703994EF2C560E3
:10531000C0F60100FBF740FE049842074EF2EA7027
:10532000C0F6010002904EF2E271C0F60101019157
:10533000002A58BF01464EF24570C0F60100FBF747
:105340002BFE01990298049A9207002A58BF014641
:105350004EF22B70C0F60100FBF71EFE0498C20748
:105360004EF2D770C0F601004EF68D01C0F6010175
:10537000002A08BF01464EF27950C0F60100FBF743
:105380000BFE19980DF048FE1690169840B1FFE7F5
:105390004EF2A270C0F60100AE21FBF741FFFFE71D
:1053A0004EF26D60C0F60100FBF7F6FDFFE70598D1
:1053B0002C2828D0FFE744F6B420C2F2004005A90B
:1053C00064220AF05DFEE8B9FFE7059906A800909F
:1053D00018F0B2FA009A18994EF21670C0F6010051
:1053E000FBF7DAFD46F20030C2F20040006840B13F
:1053F000FFE74EF2E360C0F6010006A9FBF7CCFD23
:1054000001E0FFE7D3E71AB080BD00000000000014
:1054100080B582B0019001980DF00EFF00900098C9
:1054200040B1FFE74EF2A270C0F60100D821FBF7B1
:10543000F7FEFFE7019816F0AFFF0090009840B12B
:10544000FFE74EF2A270C0F60100E021FBF7E8FE94
:10545000FFE74EF22440C0F60100FBF79DFD4EF23F
:10546000AB50C0F60100FBF797FD02B080BD000015
:1054700088B0079006910592079800F00700049005
:105480000498C0F10700052803D3FFE7042001902A
:1054900004E00498C0F107000190FFE70198039031
:1054A00004980430062803D8FFE70020009003E0AA
:1054B000049803380090FFE700980290069803993B
:1054C000012202FA01F101390840029B9840059936
:1054D0009A40013A1140084308B0704700000000AC
:1054E00080B586B00490039100208DF8070044F247
:1054F0002840C5F60200006800F00300032804D12C
:10550000FFE701208DF81700CBE044F20041C5F61B
:105510000201086820F080600860FCF7A9F9029099
:10552000FFE744F20040C5F60200006800F00061A9
:105530000020B0EBD16F0CD0FFE7FCF799F902998E
:10554000401A032804D3FFE703208DF81700A8E0D2
:10555000E7E7FFE744F22841C5F60201086820F4B6
:105560007C30049A126840EA023008600499486866
:10557000D1F808C0CB680A6901386FF35F204FF695
:105580000061CFF6FF7101EB4C2189B20844002184
:10559000CFF6FF7101EB034101F4FE0108444FF027
:1055A0007F4101EB026101F0FE41084444F23841C1
:1055B000C5F602010860FFE744F22C41C5F602017E
:1055C0000091086820F0C000049A526910430860F6
:1055D000086820F02000049A926910430860086867
:1055E00020F01000086044F23C42C5F60202106848
:1055F0004FF6F8739843049BDB6940EAC3001060E0
:10560000086840F010000860039848B9FFE744F2CA
:105610002C41C5F60201086840F40020086016E03D
:105620000398012809D1FFE744F22C41C5F6020195
:10563000086840F48010086008E044F22C41C5F688
:105640000201086840F400100860FFE7FFE744F239
:105650000041C5F60201086840F080600860FCF770
:1056600007F90290FFE744F20040C5F60200006827
:1056700000F000610020B0EBD16F0CD1FFE7FCF728
:10568000F7F80299401A032804D3FFE703208DF8A6
:10569000170006E0E7E7FFE79DF807008DF8170021
:1056A000FFE79DF8170006B080BD00000000000075
:1056B00080B586B00490039100208DF8070044F275
:1056C0002840C5F60200006800F00300032804D15A
:1056D000FFE701208DF81700CBE044F20041C5F64A
:1056E0000201086820F080500860FCF7C1F80290C1
:1056F000FFE744F20040C5F60200006800F00051E8
:105700000020B0EB517F0CD0FFE7FCF7B1F8029915
:10571000401A032804D3FFE703208DF81700A8E000
:10572000E7E7FFE744F22841C5F60201086820F0E8
:105730007C70049A126840EA025008600499486834
:10574000D1F808C0CB680A6901386FF35F204FF6C3
:105750000061CFF6FF7101EB4C2189B208440021B2
:10576000CFF6FF7101EB034101F4FE0108444FF055
:105770007F4101EB026101F0FE41084444F24041E7
:10578000C5F602010860FFE744F22C41C5F60201AC
:105790000091086820F44060049A52691043086040
:1057A000086820F40070049A926910430860086841
:1057B00020F48070086044F24442C5F6020210688A
:1057C0004FF6F8739843049BDB6940EAC30010600E
:1057D000086840F480700860039848B9FFE744F215
:1057E0002C41C5F60201086840F48000086016E00C
:1057F0000398012809D1FFE744F22C41C5F60201C4
:10580000086840F40000086008E044F22C41C5F646
:105810000201086840F080700860FFE7FFE744F28B
:105820000041C5F60201086840F080500860FCF7AE
:105830001FF80290FFE744F20040C5F6020000683E
:1058400000F000510020B0EB517F0CD1FFE7FCF7D6
:105850000FF80299401A032804D3FFE703208DF8BC
:10586000170006E0E7E7FFE79DF807008DF817004F
:10587000FFE79DF8170006B080BD000000000000A3
:1058800080B586B0FFE744F2E040C5F6020001684B
:1058900041F002010160006800F0020000900098F1
:1058A000FFE70120029000200390032004900420D1
:1058B000019040F20040C5F6020001A9FBF7D4FDBB
:1058C00006B080BD0000000081B08DF8030001B07B
:1058D000704700000000000040F21841C5F60201C8
:1058E000042008607047000040F21841C5F602012C
:1058F0004FF480200860704780B582B04EF6345077
:10590000C2F20440006888B1FFE74EF63451C2F29B
:10591000044108680138086038B9FFE74EF6305195
:10592000C2F2044101200870FFE7FFE700208DF874
:105930000700FFE79DF80700032813DCFFE79DF849
:10594000070000EB40014EF60050C2F2044000EBAD
:10595000810017F0B1FEFFE79DF8070001308DF8D8
:105960000700E7E746F2A020C2F2004001680131DB
:10597000016000686FF00041884207D1FFE746F2FE
:10598000A021C2F2004100200860FFE717F014FDDB
:1059900044F6F821C2F20041087801300870C0B224
:1059A0000A2809DBFFE744F6F821C2F20041002093
:1059B000087017F0FDFCFFE702B080BD000000009A
:1059C00080B5A2B000200090219020901F901E90E2
:1059D0001D901C901B901A9007A84C21FAF796FF77
:1059E00000988DF81B0044F60C01C5F6020108680A
:1059F00020F004000860FFE70020059040F22C40F2
:105A0000C5F60000016821F001010160006800F0A6
:105A10000100059044F61800C5F60200016841F443
:105A200040410160006800F4404005900598FFE7A0
:105A3000FFE744F61800C5F60200006800F40050C5
:105A4000B0F5005F01D0FFE7F3E7012007904FF4C6
:105A50008030089000200A900E9002211091119140
:105A600005221292A02213921491169104211591ED
:105A700018900820179007A8FDF7BEFE8DF81B00B0
:105A80009DF81B0040B1FFE74EF69200C0F6010002
:105A9000A221FBF7C5FBFFE73F201A9003201B90D4
:105AA00000201C9008201D9040201E901F904FF455
:105AB0008061209121901AA80421FDF775FA8DF8D4
:105AC0001B009DF81B0040B1FFE74EF69200C0F6A8
:105AD0000100BD21FBF7A4FBFFE744F20041C5F63E
